{
  "_format": "hh-sol-artifact-1",
  "contractName": "EMRecruit",
  "sourceName": "contracts/EMRecruit.sol",
  "abi": [
    {
      "inputs": [
        {
          "internalType": "string",
          "name": "name_",
          "type": "string"
        },
        {
          "internalType": "string",
          "name": "symbol_",
          "type": "string"
        },
        {
          "internalType": "string",
          "name": "baseUri_",
          "type": "string"
        },
        {
          "internalType": "string",
          "name": "notRevealedUri_",
          "type": "string"
        },
        {
          "internalType": "address",
          "name": "siger_",
          "type": "address"
        }
      ],
      "stateMutability": "nonpayable",
      "type": "constructor"
    },
    {
      "inputs": [],
      "name": "ApprovalCallerNotOwnerNorApproved",
      "type": "error"
    },
    {
      "inputs": [],
      "name": "ApprovalQueryForNonexistentToken",
      "type": "error"
    },
    {
      "inputs": [],
      "name": "ApproveToCaller",
      "type": "error"
    },
    {
      "inputs": [],
      "name": "BalanceQueryForZeroAddress",
      "type": "error"
    },
    {
      "inputs": [],
      "name": "InvalidQueryRange",
      "type": "error"
    },
    {
      "inputs": [],
      "name": "MintERC2309QuantityExceedsLimit",
      "type": "error"
    },
    {
      "inputs": [],
      "name": "MintToZeroAddress",
      "type": "error"
    },
    {
      "inputs": [],
      "name": "MintZeroQuantity",
      "type": "error"
    },
    {
      "inputs": [],
      "name": "OwnerQueryForNonexistentToken",
      "type": "error"
    },
    {
      "inputs": [],
      "name": "OwnershipNotInitializedForExtraData",
      "type": "error"
    },
    {
      "inputs": [],
      "name": "TransferCallerNotOwnerNorApproved",
      "type": "error"
    },
    {
      "inputs": [],
      "name": "TransferFromIncorrectOwner",
      "type": "error"
    },
    {
      "inputs": [],
      "name": "TransferToNonERC721ReceiverImplementer",
      "type": "error"
    },
    {
      "inputs": [],
      "name": "TransferToZeroAddress",
      "type": "error"
    },
    {
      "inputs": [],
      "name": "URIQueryForNonexistentToken",
      "type": "error"
    },
    {
      "anonymous": false,
      "inputs": [
        {
          "indexed": true,
          "internalType": "address",
          "name": "owner",
          "type": "address"
        },
        {
          "indexed": true,
          "internalType": "address",
          "name": "approved",
          "type": "address"
        },
        {
          "indexed": true,
          "internalType": "uint256",
          "name": "tokenId",
          "type": "uint256"
        }
      ],
      "name": "Approval",
      "type": "event"
    },
    {
      "anonymous": false,
      "inputs": [
        {
          "indexed": true,
          "internalType": "address",
          "name": "owner",
          "type": "address"
        },
        {
          "indexed": true,
          "internalType": "address",
          "name": "operator",
          "type": "address"
        },
        {
          "indexed": false,
          "internalType": "bool",
          "name": "approved",
          "type": "bool"
        }
      ],
      "name": "ApprovalForAll",
      "type": "event"
    },
    {
      "anonymous": false,
      "inputs": [
        {
          "indexed": true,
          "internalType": "uint256",
          "name": "fromTokenId",
          "type": "uint256"
        },
        {
          "indexed": false,
          "internalType": "uint256",
          "name": "toTokenId",
          "type": "uint256"
        },
        {
          "indexed": true,
          "internalType": "address",
          "name": "from",
          "type": "address"
        },
        {
          "indexed": true,
          "internalType": "address",
          "name": "to",
          "type": "address"
        }
      ],
      "name": "ConsecutiveTransfer",
      "type": "event"
    },
    {
      "anonymous": false,
      "inputs": [
        {
          "indexed": true,
          "internalType": "address",
          "name": "previousOwner",
          "type": "address"
        },
        {
          "indexed": true,
          "internalType": "address",
          "name": "newOwner",
          "type": "address"
        }
      ],
      "name": "OwnershipTransferred",
      "type": "event"
    },
    {
      "anonymous": false,
      "inputs": [
        {
          "indexed": false,
          "internalType": "address",
          "name": "account",
          "type": "address"
        }
      ],
      "name": "Paused",
      "type": "event"
    },
    {
      "anonymous": false,
      "inputs": [
        {
          "indexed": true,
          "internalType": "address",
          "name": "from",
          "type": "address"
        },
        {
          "indexed": true,
          "internalType": "address",
          "name": "to",
          "type": "address"
        },
        {
          "indexed": true,
          "internalType": "uint256",
          "name": "tokenId",
          "type": "uint256"
        }
      ],
      "name": "Transfer",
      "type": "event"
    },
    {
      "anonymous": false,
      "inputs": [
        {
          "indexed": false,
          "internalType": "address",
          "name": "account",
          "type": "address"
        }
      ],
      "name": "Unpaused",
      "type": "event"
    },
    {
      "inputs": [
        {
          "internalType": "address",
          "name": "to",
          "type": "address"
        },
        {
          "internalType": "uint256",
          "name": "tokenId",
          "type": "uint256"
        }
      ],
      "name": "approve",
      "outputs": [],
      "stateMutability": "nonpayable",
      "type": "function"
    },
    {
      "inputs": [
        {
          "internalType": "address",
          "name": "owner",
          "type": "address"
        }
      ],
      "name": "balanceOf",
      "outputs": [
        {
          "internalType": "uint256",
          "name": "",
          "type": "uint256"
        }
      ],
      "stateMutability": "view",
      "type": "function"
    },
    {
      "inputs": [],
      "name": "baseURI",
      "outputs": [
        {
          "internalType": "string",
          "name": "",
          "type": "string"
        }
      ],
      "stateMutability": "view",
      "type": "function"
    },
    {
      "inputs": [
        {
          "internalType": "uint256",
          "name": "_tokenId",
          "type": "uint256"
        }
      ],
      "name": "burn",
      "outputs": [],
      "stateMutability": "nonpayable",
      "type": "function"
    },
    {
      "inputs": [
        {
          "internalType": "uint256",
          "name": "_quatity",
          "type": "uint256"
        }
      ],
      "name": "buyRecuit",
      "outputs": [],
      "stateMutability": "payable",
      "type": "function"
    },
    {
      "inputs": [
        {
          "internalType": "uint256",
          "name": "tokenId",
          "type": "uint256"
        }
      ],
      "name": "explicitOwnershipOf",
      "outputs": [
        {
          "components": [
            {
              "internalType": "address",
              "name": "addr",
              "type": "address"
            },
            {
              "internalType": "uint64",
              "name": "startTimestamp",
              "type": "uint64"
            },
            {
              "internalType": "bool",
              "name": "burned",
              "type": "bool"
            },
            {
              "internalType": "uint24",
              "name": "extraData",
              "type": "uint24"
            }
          ],
          "internalType": "struct IERC721A.TokenOwnership",
          "name": "",
          "type": "tuple"
        }
      ],
      "stateMutability": "view",
      "type": "function"
    },
    {
      "inputs": [
        {
          "internalType": "uint256[]",
          "name": "tokenIds",
          "type": "uint256[]"
        }
      ],
      "name": "explicitOwnershipsOf",
      "outputs": [
        {
          "components": [
            {
              "internalType": "address",
              "name": "addr",
              "type": "address"
            },
            {
              "internalType": "uint64",
              "name": "startTimestamp",
              "type": "uint64"
            },
            {
              "internalType": "bool",
              "name": "burned",
              "type": "bool"
            },
            {
              "internalType": "uint24",
              "name": "extraData",
              "type": "uint24"
            }
          ],
          "internalType": "struct IERC721A.TokenOwnership[]",
          "name": "",
          "type": "tuple[]"
        }
      ],
      "stateMutability": "view",
      "type": "function"
    },
    {
      "inputs": [
        {
          "internalType": "uint256",
          "name": "tokenId",
          "type": "uint256"
        }
      ],
      "name": "getApproved",
      "outputs": [
        {
          "internalType": "address",
          "name": "",
          "type": "address"
        }
      ],
      "stateMutability": "view",
      "type": "function"
    },
    {
      "inputs": [
        {
          "internalType": "address",
          "name": "",
          "type": "address"
        }
      ],
      "name": "hasFreeMinted",
      "outputs": [
        {
          "internalType": "bool",
          "name": "",
          "type": "bool"
        }
      ],
      "stateMutability": "view",
      "type": "function"
    },
    {
      "inputs": [
        {
          "internalType": "address",
          "name": "owner",
          "type": "address"
        },
        {
          "internalType": "address",
          "name": "operator",
          "type": "address"
        }
      ],
      "name": "isApprovedForAll",
      "outputs": [
        {
          "internalType": "bool",
          "name": "",
          "type": "bool"
        }
      ],
      "stateMutability": "view",
      "type": "function"
    },
    {
      "inputs": [
        {
          "internalType": "uint256",
          "name": "",
          "type": "uint256"
        }
      ],
      "name": "isFreeToken",
      "outputs": [
        {
          "internalType": "bool",
          "name": "",
          "type": "bool"
        }
      ],
      "stateMutability": "view",
      "type": "function"
    },
    {
      "inputs": [
        {
          "internalType": "bytes32",
          "name": "_msgHash",
          "type": "bytes32"
        },
        {
          "internalType": "bytes",
          "name": "_signature",
          "type": "bytes"
        },
        {
          "internalType": "uint256",
          "name": "_at",
          "type": "uint256"
        },
        {
          "internalType": "uint256",
          "name": "_tokenId",
          "type": "uint256"
        }
      ],
      "name": "levelUp",
      "outputs": [],
      "stateMutability": "nonpayable",
      "type": "function"
    },
    {
      "inputs": [
        {
          "internalType": "uint256",
          "name": "_tokenId",
          "type": "uint256"
        },
        {
          "internalType": "uint8",
          "name": "_level",
          "type": "uint8"
        }
      ],
      "name": "levelUpByOwner",
      "outputs": [],
      "stateMutability": "nonpayable",
      "type": "function"
    },
    {
      "inputs": [],
      "name": "levelUpprice",
      "outputs": [
        {
          "internalType": "uint256",
          "name": "",
          "type": "uint256"
        }
      ],
      "stateMutability": "view",
      "type": "function"
    },
    {
      "inputs": [],
      "name": "lieutenantLevel",
      "outputs": [
        {
          "internalType": "uint8",
          "name": "",
          "type": "uint8"
        }
      ],
      "stateMutability": "view",
      "type": "function"
    },
    {
      "inputs": [],
      "name": "maxLevel",
      "outputs": [
        {
          "internalType": "uint8",
          "name": "",
          "type": "uint8"
        }
      ],
      "stateMutability": "view",
      "type": "function"
    },
    {
      "inputs": [],
      "name": "maxMipSale",
      "outputs": [
        {
          "internalType": "uint256",
          "name": "",
          "type": "uint256"
        }
      ],
      "stateMutability": "view",
      "type": "function"
    },
    {
      "inputs": [],
      "name": "name",
      "outputs": [
        {
          "internalType": "string",
          "name": "",
          "type": "string"
        }
      ],
      "stateMutability": "view",
      "type": "function"
    },
    {
      "inputs": [],
      "name": "notRevealedURI",
      "outputs": [
        {
          "internalType": "string",
          "name": "",
          "type": "string"
        }
      ],
      "stateMutability": "view",
      "type": "function"
    },
    {
      "inputs": [
        {
          "internalType": "address",
          "name": "_owner",
          "type": "address"
        }
      ],
      "name": "numberMinted",
      "outputs": [
        {
          "internalType": "uint256",
          "name": "",
          "type": "uint256"
        }
      ],
      "stateMutability": "view",
      "type": "function"
    },
    {
      "inputs": [
        {
          "internalType": "address",
          "name": "",
          "type": "address"
        }
      ],
      "name": "operators",
      "outputs": [
        {
          "internalType": "bool",
          "name": "",
          "type": "bool"
        }
      ],
      "stateMutability": "view",
      "type": "function"
    },
    {
      "inputs": [],
      "name": "owner",
      "outputs": [
        {
          "internalType": "address",
          "name": "",
          "type": "address"
        }
      ],
      "stateMutability": "view",
      "type": "function"
    },
    {
      "inputs": [
        {
          "internalType": "uint256",
          "name": "tokenId",
          "type": "uint256"
        }
      ],
      "name": "ownerOf",
      "outputs": [
        {
          "internalType": "address",
          "name": "",
          "type": "address"
        }
      ],
      "stateMutability": "view",
      "type": "function"
    },
    {
      "inputs": [],
      "name": "pause",
      "outputs": [],
      "stateMutability": "nonpayable",
      "type": "function"
    },
    {
      "inputs": [],
      "name": "paused",
      "outputs": [
        {
          "internalType": "bool",
          "name": "",
          "type": "bool"
        }
      ],
      "stateMutability": "view",
      "type": "function"
    },
    {
      "inputs": [
        {
          "internalType": "uint256",
          "name": "_tokenId",
          "type": "uint256"
        },
        {
          "internalType": "uint8",
          "name": "_level",
          "type": "uint8"
        }
      ],
      "name": "payForlevelUp",
      "outputs": [],
      "stateMutability": "payable",
      "type": "function"
    },
    {
      "inputs": [],
      "name": "price",
      "outputs": [
        {
          "internalType": "uint256",
          "name": "",
          "type": "uint256"
        }
      ],
      "stateMutability": "view",
      "type": "function"
    },
    {
      "inputs": [
        {
          "internalType": "uint256",
          "name": "",
          "type": "uint256"
        }
      ],
      "name": "recuitToLevel",
      "outputs": [
        {
          "internalType": "uint8",
          "name": "",
          "type": "uint8"
        }
      ],
      "stateMutability": "view",
      "type": "function"
    },
    {
      "inputs": [],
      "name": "renounceOwnership",
      "outputs": [],
      "stateMutability": "nonpayable",
      "type": "function"
    },
    {
      "inputs": [],
      "name": "revealed",
      "outputs": [
        {
          "internalType": "bool",
          "name": "",
          "type": "bool"
        }
      ],
      "stateMutability": "view",
      "type": "function"
    },
    {
      "inputs": [
        {
          "internalType": "bytes32",
          "name": "_msgHash",
          "type": "bytes32"
        },
        {
          "internalType": "bytes",
          "name": "_signature",
          "type": "bytes"
        },
        {
          "internalType": "uint256",
          "name": "at",
          "type": "uint256"
        }
      ],
      "name": "safeMint",
      "outputs": [],
      "stateMutability": "nonpayable",
      "type": "function"
    },
    {
      "inputs": [
        {
          "internalType": "address[]",
          "name": "_tos",
          "type": "address[]"
        },
        {
          "internalType": "uint256[]",
          "name": "_quantities",
          "type": "uint256[]"
        }
      ],
      "name": "safeMintBatchByOwner",
      "outputs": [],
      "stateMutability": "nonpayable",
      "type": "function"
    },
    {
      "inputs": [
        {
          "internalType": "address",
          "name": "_to",
          "type": "address"
        },
        {
          "internalType": "uint256",
          "name": "_quantity",
          "type": "uint256"
        }
      ],
      "name": "safeMintByOwner",
      "outputs": [],
      "stateMutability": "nonpayable",
      "type": "function"
    },
    {
      "inputs": [
        {
          "internalType": "address",
          "name": "from",
          "type": "address"
        },
        {
          "internalType": "address",
          "name": "to",
          "type": "address"
        },
        {
          "internalType": "uint256",
          "name": "tokenId",
          "type": "uint256"
        }
      ],
      "name": "safeTransferFrom",
      "outputs": [],
      "stateMutability": "nonpayable",
      "type": "function"
    },
    {
      "inputs": [
        {
          "internalType": "address",
          "name": "from",
          "type": "address"
        },
        {
          "internalType": "address",
          "name": "to",
          "type": "address"
        },
        {
          "internalType": "uint256",
          "name": "tokenId",
          "type": "uint256"
        },
        {
          "internalType": "bytes",
          "name": "_data",
          "type": "bytes"
        }
      ],
      "name": "safeTransferFrom",
      "outputs": [],
      "stateMutability": "nonpayable",
      "type": "function"
    },
    {
      "inputs": [
        {
          "internalType": "address",
          "name": "operator",
          "type": "address"
        },
        {
          "internalType": "bool",
          "name": "approved",
          "type": "bool"
        }
      ],
      "name": "setApprovalForAll",
      "outputs": [],
      "stateMutability": "nonpayable",
      "type": "function"
    },
    {
      "inputs": [
        {
          "internalType": "string",
          "name": "_uri",
          "type": "string"
        }
      ],
      "name": "setBaseURI",
      "outputs": [
        {
          "internalType": "bool",
          "name": "",
          "type": "bool"
        }
      ],
      "stateMutability": "nonpayable",
      "type": "function"
    },
    {
      "inputs": [
        {
          "internalType": "uint256",
          "name": "_price",
          "type": "uint256"
        }
      ],
      "name": "setLevelUpprice",
      "outputs": [],
      "stateMutability": "nonpayable",
      "type": "function"
    },
    {
      "inputs": [
        {
          "internalType": "uint8",
          "name": "_level",
          "type": "uint8"
        }
      ],
      "name": "setLieutenantLevel",
      "outputs": [],
      "stateMutability": "nonpayable",
      "type": "function"
    },
    {
      "inputs": [
        {
          "internalType": "uint256",
          "name": "_maxMipSale",
          "type": "uint256"
        }
      ],
      "name": "setMaxMipSale",
      "outputs": [],
      "stateMutability": "nonpayable",
      "type": "function"
    },
    {
      "inputs": [
        {
          "internalType": "uint8",
          "name": "_maxLevel",
          "type": "uint8"
        }
      ],
      "name": "setMaximumLevel",
      "outputs": [],
      "stateMutability": "nonpayable",
      "type": "function"
    },
    {
      "inputs": [
        {
          "internalType": "address",
          "name": "operator",
          "type": "address"
        },
        {
          "internalType": "bool",
          "name": "approved",
          "type": "bool"
        }
      ],
      "name": "setOperator",
      "outputs": [],
      "stateMutability": "nonpayable",
      "type": "function"
    },
    {
      "inputs": [
        {
          "internalType": "uint256",
          "name": "_price",
          "type": "uint256"
        }
      ],
      "name": "setPrice",
      "outputs": [],
      "stateMutability": "nonpayable",
      "type": "function"
    },
    {
      "inputs": [
        {
          "internalType": "bool",
          "name": "_reveale",
          "type": "bool"
        }
      ],
      "name": "setRevealed",
      "outputs": [],
      "stateMutability": "nonpayable",
      "type": "function"
    },
    {
      "inputs": [
        {
          "internalType": "address",
          "name": "_systemSigner",
          "type": "address"
        }
      ],
      "name": "setSystemSigner",
      "outputs": [],
      "stateMutability": "nonpayable",
      "type": "function"
    },
    {
      "inputs": [
        {
          "internalType": "uint256",
          "name": "_tokenId",
          "type": "uint256"
        },
        {
          "internalType": "string",
          "name": "_tokenURI",
          "type": "string"
        }
      ],
      "name": "setTokenURIByOnwer",
      "outputs": [],
      "stateMutability": "nonpayable",
      "type": "function"
    },
    {
      "inputs": [
        {
          "internalType": "uint256",
          "name": "_period",
          "type": "uint256"
        }
      ],
      "name": "setVipMintingPeriod",
      "outputs": [],
      "stateMutability": "nonpayable",
      "type": "function"
    },
    {
      "inputs": [
        {
          "internalType": "uint256",
          "name": "_vipSaleStartTime",
          "type": "uint256"
        }
      ],
      "name": "setVipSaleStartTime",
      "outputs": [],
      "stateMutability": "nonpayable",
      "type": "function"
    },
    {
      "inputs": [
        {
          "internalType": "bytes4",
          "name": "interfaceId",
          "type": "bytes4"
        }
      ],
      "name": "supportsInterface",
      "outputs": [
        {
          "internalType": "bool",
          "name": "",
          "type": "bool"
        }
      ],
      "stateMutability": "view",
      "type": "function"
    },
    {
      "inputs": [],
      "name": "symbol",
      "outputs": [
        {
          "internalType": "string",
          "name": "",
          "type": "string"
        }
      ],
      "stateMutability": "view",
      "type": "function"
    },
    {
      "inputs": [
        {
          "internalType": "uint256",
          "name": "_tokenId",
          "type": "uint256"
        }
      ],
      "name": "tokenURI",
      "outputs": [
        {
          "internalType": "string",
          "name": "",
          "type": "string"
        }
      ],
      "stateMutability": "view",
      "type": "function"
    },
    {
      "inputs": [
        {
          "internalType": "address",
          "name": "owner",
          "type": "address"
        }
      ],
      "name": "tokensOfOwner",
      "outputs": [
        {
          "internalType": "uint256[]",
          "name": "",
          "type": "uint256[]"
        }
      ],
      "stateMutability": "view",
      "type": "function"
    },
    {
      "inputs": [
        {
          "internalType": "address",
          "name": "owner",
          "type": "address"
        },
        {
          "internalType": "uint256",
          "name": "start",
          "type": "uint256"
        },
        {
          "internalType": "uint256",
          "name": "stop",
          "type": "uint256"
        }
      ],
      "name": "tokensOfOwnerIn",
      "outputs": [
        {
          "internalType": "uint256[]",
          "name": "",
          "type": "uint256[]"
        }
      ],
      "stateMutability": "view",
      "type": "function"
    },
    {
      "inputs": [],
      "name": "totalMinted",
      "outputs": [
        {
          "internalType": "uint256",
          "name": "",
          "type": "uint256"
        }
      ],
      "stateMutability": "view",
      "type": "function"
    },
    {
      "inputs": [],
      "name": "totalSupply",
      "outputs": [
        {
          "internalType": "uint256",
          "name": "",
          "type": "uint256"
        }
      ],
      "stateMutability": "view",
      "type": "function"
    },
    {
      "inputs": [
        {
          "internalType": "address",
          "name": "from",
          "type": "address"
        },
        {
          "internalType": "address",
          "name": "to",
          "type": "address"
        },
        {
          "internalType": "uint256",
          "name": "tokenId",
          "type": "uint256"
        }
      ],
      "name": "transferFrom",
      "outputs": [],
      "stateMutability": "nonpayable",
      "type": "function"
    },
    {
      "inputs": [
        {
          "internalType": "address",
          "name": "newOwner",
          "type": "address"
        }
      ],
      "name": "transferOwnership",
      "outputs": [],
      "stateMutability": "nonpayable",
      "type": "function"
    },
    {
      "inputs": [],
      "name": "unpause",
      "outputs": [],
      "stateMutability": "nonpayable",
      "type": "function"
    },
    {
      "inputs": [],
      "name": "vipMintingPeriod",
      "outputs": [
        {
          "internalType": "uint256",
          "name": "",
          "type": "uint256"
        }
      ],
      "stateMutability": "view",
      "type": "function"
    },
    {
      "inputs": [
        {
          "internalType": "uint256",
          "name": "_quatity",
          "type": "uint256"
        },
        {
          "internalType": "bytes32",
          "name": "_msgHash",
          "type": "bytes32"
        },
        {
          "internalType": "bytes",
          "name": "_signature",
          "type": "bytes"
        },
        {
          "internalType": "uint256",
          "name": "at",
          "type": "uint256"
        }
      ],
      "name": "vipSale",
      "outputs": [],
      "stateMutability": "payable",
      "type": "function"
    },
    {
      "inputs": [],
      "name": "vipSaleCount",
      "outputs": [
        {
          "internalType": "uint256",
          "name": "",
          "type": "uint256"
        }
      ],
      "stateMutability": "view",
      "type": "function"
    },
    {
      "inputs": [],
      "name": "vipSaleStartTime",
      "outputs": [
        {
          "internalType": "uint256",
          "name": "",
          "type": "uint256"
        }
      ],
      "stateMutability": "view",
      "type": "function"
    },
    {
      "inputs": [],
      "name": "withdraw",
      "outputs": [],
      "stateMutability": "nonpayable",
      "type": "function"
    }
  ],
  "bytecode": "0x60806040526618838370f34000600c819055600d5562015180600e556103e86010556362dad55b6011556012805461ffff60ff60b01b0119166105031790553480156200004b57600080fd5b50604051620050c7380380620050c78339810160408190526200006e91620007fe565b8451859085906200008790600290602085019062000682565b5080516200009d90600390602084019062000682565b5050600160005550620000b03362000178565b6008805460ff60a01b1916905560016009558251620000d790600a90602086019062000682565b508151620000ed90600b90602085019062000682565b506012805462010000600160b01b031916620100006001600160a01b0384160217905562000130620001276008546001600160a01b031690565b61041a620001ca565b60015b61041b8110156200016c576000818152601560205260409020805460ff19166001179055806200016381620008db565b91505062000133565b505050505050620009c4565b600880546001600160a01b038381166001600160a01b0319831681179093556040519116919082907f8be0079c531659141344cd1fd0a4f28419497f9722a3daafe3b4186f6b6457e090600090a35050565b620001ec828260405180602001604052806000815250620001f060201b60201c565b5050565b620001fc838362000267565b6001600160a01b0383163b1562000262576000548281035b60018101906200022a906000908790866200034f565b62000248576040516368d2bf6b60e11b815260040160405180910390fd5b818110620002145781600054146200025f57600080fd5b50505b505050565b60005481620002895760405163b562e8dd60e01b815260040160405180910390fd5b62000298600084838562000450565b6001600160a01b03831660008181526005602090815260408083208054680100000000000000018802019055848352600490915281206001851460e11b4260a01b17831790558284019083908390600080516020620050a78339815191528180a4600183015b818114620003275780836000600080516020620050a7833981519152600080a4600101620002fe565b50816200034657604051622e076360e81b815260040160405180910390fd5b60005550505050565b604051630a85bd0160e11b81526000906001600160a01b0385169063150b7a02906200038690339089908890889060040162000905565b602060405180830381600087803b158015620003a157600080fd5b505af1925050508015620003d4575060408051601f3d908101601f19168201909252620003d1918101906200095b565b60015b62000433573d80801562000405576040519150601f19603f3d011682016040523d82523d6000602084013e6200040a565b606091505b5080516200042b576040516368d2bf6b60e11b815260040160405180910390fd5b805181602001fd5b6001600160e01b031916630a85bd0160e11b149050949350505050565b6200045b8262000559565b156200055357604080516080810182526000808252602082018190529181018290526060810191909152620004908362000593565b9050806040015115620004ea5760405162461bcd60e51b815260206004820152601560248201527f5448495320544f4b454e20574153204255524e4544000000000000000000000060448201526064015b60405180910390fd5b60125460008481526015602052604090205460ff918216911610156200025f5760405162461bcd60e51b815260206004820152601d60248201527f4e45454420544f204c4556454c555020544f204c49455554454e414e540000006044820152606401620004e1565b50505050565b6000816001111580156200056e575060005482105b80156200058d5750600082815260046020526040902054600160e01b16155b92915050565b6040805160808101825260008082526020820181905291810182905260608101919091526200058d620005c6836200060d565b604080516080810182526001600160a01b038316815260a083901c6001600160401b03166020820152600160e01b831615159181019190915260e89190911c606082015290565b6000818060011162000669576000548110156200066957600081815260046020526040902054600160e01b811662000667575b806200066057506000190160008181526004602052604090205462000640565b9392505050565b505b604051636f96cda160e11b815260040160405180910390fd5b828054620006909062000987565b90600052602060002090601f016020900481019282620006b45760008555620006ff565b82601f10620006cf57805160ff1916838001178555620006ff565b82800160010185558215620006ff579182015b82811115620006ff578251825591602001919060010190620006e2565b506200070d92915062000711565b5090565b5b808211156200070d576000815560010162000712565b634e487b7160e01b600052604160045260246000fd5b60005b838110156200075b57818101518382015260200162000741565b83811115620005535750506000910152565b600082601f8301126200077f57600080fd5b81516001600160401b03808211156200079c576200079c62000728565b604051601f8301601f19908116603f01168101908282118183101715620007c757620007c762000728565b81604052838152866020858801011115620007e157600080fd5b620007f48460208301602089016200073e565b9695505050505050565b600080600080600060a086880312156200081757600080fd5b85516001600160401b03808211156200082f57600080fd5b6200083d89838a016200076d565b965060208801519150808211156200085457600080fd5b6200086289838a016200076d565b955060408801519150808211156200087957600080fd5b6200088789838a016200076d565b945060608801519150808211156200089e57600080fd5b50620008ad888289016200076d565b608088015190935090506001600160a01b0381168114620008cd57600080fd5b809150509295509295909350565b6000600019821415620008fe57634e487b7160e01b600052601160045260246000fd5b5060010190565b600060018060a01b038087168352808616602084015250836040830152608060608301528251806080840152620009448160a08501602087016200073e565b601f01601f19169190910160a00195945050505050565b6000602082840312156200096e57600080fd5b81516001600160e01b0319811681146200066057600080fd5b600181811c908216806200099c57607f821691505b60208210811415620009be57634e487b7160e01b600052602260045260246000fd5b50919050565b6146d380620009d46000396000f3fe6080604052600436106103b85760003560e01c806372250380116101f2578063b5e5acc51161010d578063e0a80853116100a0578063f2fde38b1161006f578063f2fde38b14610b27578063f979c96514610b47578063f9e9026414610b67578063fa76b11514610b8757600080fd5b8063e0a8085314610a6e578063e985e9c514610a8e578063ef6187a414610ad7578063f28daf6d14610b0757600080fd5b8063cc06c359116100dc578063cc06c359146109ef578063ced23a1a14610a0e578063dc33e68114610a2e578063e064b19914610a4e57600080fd5b8063b5e5acc514610962578063b88d4fde14610982578063c23dc68f146109a2578063c87b56dd146109cf57600080fd5b806395d89b4111610185578063a2309ff811610154578063a2309ff8146108f9578063a74bcde514610912578063b072a94514610932578063b3ebb3811461094857600080fd5b806395d89b411461088e57806399a2557a146108a3578063a035b1fe146108c3578063a22cb465146108d957600080fd5b80638552c6ca116101c15780638552c6ca146107f85780638da5cb5b1461083a57806391b7f5ed1461085857806393d59a2c1461087857600080fd5b8063722503801461078e57806381f67f34146107a35780638456cb59146107b65780638462151c146107cb57600080fd5b80633f4ba83a116102e25780635a9dedd511610275578063638d21f711610244578063638d21f7146107315780636c0360eb1461074457806370a0823114610759578063715018a61461077957600080fd5b80635a9dedd5146106b25780635bbb2177146106c55780635c975abb146106f25780636352211e1461071157600080fd5b806351830227116102b15780635183022714610631578063536372c114610652578063558a72971461067257806355f804b31461069257600080fd5b80633f4ba83a146105c657806342842e0e146105db57806342966c68146105fb5780634f6115e31461061b57600080fd5b806323b872dd1161035a57806330bc3d721161032957806330bc3d721461055b57806336794d151461057b578063375865651461059b5780633ccfd60b146105b157600080fd5b806323b872dd146104e5578063283d1e42146105055780632de6ddc7146105255780632f3942361461053b57600080fd5b8063095ea7b311610396578063095ea7b31461044c57806313e7c9d81461046e57806314f223871461049e57806318160ddd146104be57600080fd5b806301ffc9a7146103bd57806306fdde03146103f2578063081812fc14610414575b600080fd5b3480156103c957600080fd5b506103dd6103d8366004613cb6565b610bb7565b60405190151581526020015b60405180910390f35b3480156103fe57600080fd5b50610407610c54565b6040516103e99190613d2b565b34801561042057600080fd5b5061043461042f366004613d3e565b610ce6565b6040516001600160a01b0390911681526020016103e9565b34801561045857600080fd5b5061046c610467366004613d6e565b610d43565b005b34801561047a57600080fd5b506103dd610489366004613d98565b60176020526000908152604090205460ff1681565b3480156104aa57600080fd5b5061046c6104b9366004613d98565b610e09565b3480156104ca57600080fd5b5060015460005403600019015b6040519081526020016103e9565b3480156104f157600080fd5b5061046c610500366004613db3565b610e9c565b34801561051157600080fd5b5061046c610520366004613d3e565b611077565b34801561053157600080fd5b506104d7600e5481565b34801561054757600080fd5b5061046c610556366004613ea6565b6110ca565b34801561056757600080fd5b5061046c610576366004613efe565b611141565b34801561058757600080fd5b5061046c610596366004613f2a565b61129e565b3480156105a757600080fd5b506104d760115481565b3480156105bd57600080fd5b5061046c6115b8565b3480156105d257600080fd5b5061046c6116aa565b3480156105e757600080fd5b5061046c6105f6366004613db3565b611707565b34801561060757600080fd5b5061046c610616366004613d3e565b611727565b34801561062757600080fd5b506104d760105481565b34801561063d57600080fd5b506012546103dd90600160b01b900460ff1681565b34801561065e57600080fd5b5061046c61066d366004613d3e565b611788565b34801561067e57600080fd5b5061046c61068d366004613f8a565b6117db565b34801561069e57600080fd5b506103dd6106ad366004613fb4565b61180e565b61046c6106c0366004613fe9565b611836565b3480156106d157600080fd5b506106e56106e0366004614041565b611b96565b6040516103e991906140b6565b3480156106fe57600080fd5b50600854600160a01b900460ff166103dd565b34801561071d57600080fd5b5061043461072c366004613d3e565b611c62565b61046c61073f366004613d3e565b611c6d565b34801561075057600080fd5b50610407611e1a565b34801561076557600080fd5b506104d7610774366004613d98565b611ea8565b34801561078557600080fd5b5061046c611f10565b34801561079a57600080fd5b50610407611f24565b61046c6107b1366004613efe565b611f31565b3480156107c257600080fd5b5061046c612049565b3480156107d757600080fd5b506107eb6107e6366004613d98565b61209f565b6040516103e99190614133565b34801561080457600080fd5b50610828610813366004613d3e565b60156020526000908152604090205460ff1681565b60405160ff90911681526020016103e9565b34801561084657600080fd5b506008546001600160a01b0316610434565b34801561086457600080fd5b5061046c610873366004613d3e565b6121aa565b34801561088457600080fd5b506104d7600d5481565b34801561089a57600080fd5b506104076121c9565b3480156108af57600080fd5b506107eb6108be36600461416b565b6121d8565b3480156108cf57600080fd5b506104d7600c5481565b3480156108e557600080fd5b5061046c6108f4366004613f8a565b61237d565b34801561090557600080fd5b50600054600019016104d7565b34801561091e57600080fd5b5061046c61092d366004613d3e565b61242c565b34801561093e57600080fd5b506104d7600f5481565b34801561095457600080fd5b506012546108289060ff1681565b34801561096e57600080fd5b5061046c61097d36600461419e565b61247f565b34801561098e57600080fd5b5061046c61099d3660046141b9565b61249d565b3480156109ae57600080fd5b506109c26109bd366004613d3e565b6124e7565b6040516103e99190614221565b3480156109db57600080fd5b506104076109ea366004613d3e565b61256f565b3480156109fb57600080fd5b5060125461082890610100900460ff1681565b348015610a1a57600080fd5b5061046c610a29366004613d3e565b612780565b348015610a3a57600080fd5b506104d7610a49366004613d98565b61279f565b348015610a5a57600080fd5b5061046c610a69366004613d6e565b6127ca565b348015610a7a57600080fd5b5061046c610a89366004614266565b612889565b348015610a9a57600080fd5b506103dd610aa9366004614281565b6001600160a01b03918216600090815260076020908152604080832093909416825291909152205460ff1690565b348015610ae357600080fd5b506103dd610af2366004613d98565b60166020526000908152604090205460ff1681565b348015610b1357600080fd5b5061046c610b2236600461433a565b612910565b348015610b3357600080fd5b5061046c610b42366004613d98565b612a2f565b348015610b5357600080fd5b5061046c610b623660046143f0565b612abf565b348015610b7357600080fd5b5061046c610b8236600461419e565b612d9b565b348015610b9357600080fd5b506103dd610ba2366004613d3e565b60146020526000908152604090205460ff1681565b60007f01ffc9a7000000000000000000000000000000000000000000000000000000006001600160e01b031983161480610c1a57507f80ac58cd000000000000000000000000000000000000000000000000000000006001600160e01b03198316145b80610c4e57507f5b5e139f000000000000000000000000000000000000000000000000000000006001600160e01b03198316145b92915050565b606060028054610c6390614447565b80601f0160208091040260200160405190810160405280929190818152602001828054610c8f90614447565b8015610cdc5780601f10610cb157610100808354040283529160200191610cdc565b820191906000526020600020905b815481529060010190602001808311610cbf57829003601f168201915b5050505050905090565b6000610cf182612dbf565b610d27576040517fcf4700e400000000000000000000000000000000000000000000000000000000815260040160405180910390fd5b506000908152600660205260409020546001600160a01b031690565b6000610d4e82611c62565b9050336001600160a01b03821614610da057610d6a8133610aa9565b610da0576040517fcfb3b94200000000000000000000000000000000000000000000000000000000815260040160405180910390fd5b600082815260066020526040808220805473ffffffffffffffffffffffffffffffffffffffff19166001600160a01b0387811691821790925591518593918516917f8c5be1e5ebec7d5bd14f71427d1e84f3dd0314c0f7b2291e5b200ac8c7c3b92591a4505050565b610e11612df4565b60026009541415610e575760405162461bcd60e51b815260206004820152601f602482015260008051602061467e83398151915260448201526064015b60405180910390fd5b601280546001600160a01b0390921662010000027fffffffffffffffffffff0000000000000000000000000000000000000000ffff9092169190911790556001600955565b6000610ea782612e4e565b9050836001600160a01b0316816001600160a01b031614610ef4576040517fa114810000000000000000000000000000000000000000000000000000000000815260040160405180910390fd5b60008281526006602052604090208054610f208187335b6001600160a01b039081169116811491141790565b610f4b57610f2e8633610aa9565b610f4b57604051632ce44b5f60e11b815260040160405180910390fd5b6001600160a01b038516610f8b576040517fea553b3400000000000000000000000000000000000000000000000000000000815260040160405180910390fd5b610f988686866001612ed0565b8015610fa357600082555b6001600160a01b038681166000908152600560205260408082208054600019019055918716808252919020805460010190554260a01b17600160e11b17600085815260046020526040902055600160e11b831661102e576001840160008181526004602052604090205461102c57600054811461102c5760008181526004602052604090208490555b505b83856001600160a01b0316876001600160a01b03167fddf252ad1be2c89b69c2b068fc378daa952ba7f163c4a11628f55a4df523b3ef60405160405180910390a4505050505050565b61107f612df4565b600260095414156110c05760405162461bcd60e51b815260206004820152601f602482015260008051602061467e8339815191526044820152606401610e4e565b600e556001600955565b6110d2612df4565b600260095414156111135760405162461bcd60e51b815260206004820152601f602482015260008051602061467e8339815191526044820152606401610e4e565b60026009556000828152601360209081526040909120825161113792840190613c07565b5050600160095550565b611149612df4565b6002600954141561118a5760405162461bcd60e51b815260206004820152601f602482015260008051602061467e8339815191526044820152606401610e4e565b600260095560ff81166111df5760405162461bcd60e51b815260206004820152601260248201527f4c4556454c5f43414e5f4e4f545f42455f3000000000000000000000000000006044820152606401610e4e565b60125460008381526015602052604090205460ff61010090920482169161120891849116614498565b60ff1611156112595760405162461bcd60e51b815260206004820152601560248201527f524541434845445f4d4158494d554d5f4c4556454c00000000000000000000006044820152606401610e4e565b6000828152601560205260408120805483929061127a90849060ff16614498565b92506101000a81548160ff021916908360ff16021790555060016009819055505050565b6112a6612fcd565b600260095414156112e75760405162461bcd60e51b815260206004820152601f602482015260008051602061467e8339815191526044820152606401610e4e565b6002600955601254839083906201000090046001600160a01b031660006113658361135f866040517f19457468657265756d205369676e6564204d6573736167653a0a3332000000006020820152603c8101829052600090605c01604051602081830303815290604052805190602001209050919050565b90613027565b9050816001600160a01b0316816001600160a01b0316146113bc5760405162461bcd60e51b8152602060048201526011602482015270494e56414c49445f5349474e415455524560781b6044820152606401610e4e565b6040516bffffffffffffffffffffffff193360601b16602082015260348101869052879086908290605401604051602081830303815290604052805190602001201461143c5760405162461bcd60e51b815260206004820152600f60248201526e494e56414c49445f4d45535341474560881b6044820152606401610e4e565b600e5460115461144c90426144bd565b118061145b5750601054600f54145b6114a75760405162461bcd60e51b815260206004820152600f60248201527f5649502053414c4520504552494f4400000000000000000000000000000000006044820152606401610e4e565b336114f45760405162461bcd60e51b815260206004820152601a60248201527f30204953204e4f54204120434f525245435420414444524553530000000000006044820152606401610e4e565b3360009081526016602052604090205460ff16156115545760405162461bcd60e51b815260206004820152601160248201527f5155414e544954595f45584345454445440000000000000000000000000000006044820152606401610e4e565b600080548082526014602090815260408084208054600160ff1991821681179092556015845282862080548216831790553380875260169094529190942080549091168417905590916115a7919061304b565b505060016009555050505050505050565b6115c0612df4565b478061160e5760405162461bcd60e51b815260206004820181905260248201527f42616c616e63652073686f756c64206265206d6f7265207468616e207a65726f6044820152606401610e4e565b604051600090339083908381818185875af1925050503d8060008114611650576040519150601f19603f3d011682016040523d82523d6000602084013e611655565b606091505b50509050806116a65760405162461bcd60e51b815260206004820152601460248201527f4661696c656420746f2073656e642045746865720000000000000000000000006044820152606401610e4e565b5050565b6116b2612df4565b600260095414156116f35760405162461bcd60e51b815260206004820152601f602482015260008051602061467e8339815191526044820152606401610e4e565b6002600955611700613065565b6001600955565b6117228383836040518060200160405280600081525061249d565b505050565b61172f612fcd565b600260095414156117705760405162461bcd60e51b815260206004820152601f602482015260008051602061467e8339815191526044820152606401610e4e565b60026009556117808160016130ba565b506001600955565b611790612df4565b600260095414156117d15760405162461bcd60e51b815260206004820152601f602482015260008051602061467e8339815191526044820152606401610e4e565b6010556001600955565b6117e3612df4565b6001600160a01b03919091166000908152601760205260409020805460ff1916911515919091179055565b6000611818612df4565b815161182b90600a906020850190613c07565b50600190505b919050565b61183e612fcd565b6002600954141561187f5760405162461bcd60e51b815260206004820152601f602482015260008051602061467e8339815191526044820152606401610e4e565b6002600955601254839083906201000090046001600160a01b031660006118f78361135f866040517f19457468657265756d205369676e6564204d6573736167653a0a3332000000006020820152603c8101829052600090605c01604051602081830303815290604052805190602001209050919050565b9050816001600160a01b0316816001600160a01b03161461194e5760405162461bcd60e51b8152602060048201526011602482015270494e56414c49445f5349474e415455524560781b6044820152606401610e4e565b6040516bffffffffffffffffffffffff193360601b1660208201526034810186905287908690829060540160405160208183030381529060405280519060200120146119ce5760405162461bcd60e51b815260206004820152600f60248201526e494e56414c49445f4d45535341474560881b6044820152606401610e4e565b33611a1b5760405162461bcd60e51b815260206004820152601a60248201527f30204953204e4f54204120434f525245435420414444524553530000000000006044820152606401610e4e565b60008a11611a6b5760405162461bcd60e51b815260206004820152601760248201527f30204953204e4f542056414c4944205155414e544949590000000000000000006044820152606401610e4e565b89600c54611a7991906144d4565b341015611ab95760405162461bcd60e51b815260206004820152600e60248201526d1393d517d15393d551d7d195539160921b6044820152606401610e4e565b600e54601154611ac990426144bd565b10611b165760405162461bcd60e51b815260206004820152601460248201527f5649502053414c4520504552494f44204f5645520000000000000000000000006044820152606401610e4e565b6010548a600f54611b2791906144f3565b1115611b755760405162461bcd60e51b815260206004820152601a60248201527f5649505f53414c455f5155414e544954595f45584345454445440000000000006044820152606401610e4e565b89600f6000828254611b8791906144f3565b909155506115a790508a613224565b60608160008167ffffffffffffffff811115611bb457611bb4613def565b604051908082528060200260200182016040528015611c0657816020015b604080516080810182526000808252602080830182905292820181905260608201528252600019909201910181611bd25790505b50905060005b828114611c5957611c34868683818110611c2857611c2861450b565b905060200201356124e7565b828281518110611c4657611c4661450b565b6020908102919091010152600101611c0c565b50949350505050565b6000610c4e82612e4e565b611c75612fcd565b60026009541415611cb65760405162461bcd60e51b815260206004820152601f602482015260008051602061467e8339815191526044820152606401610e4e565b600260095533611d085760405162461bcd60e51b815260206004820152601a60248201527f30204953204e4f54204120434f525245435420414444524553530000000000006044820152606401610e4e565b60008111611d585760405162461bcd60e51b815260206004820152601760248201527f30204953204e4f542056414c4944205155414e544949590000000000000000006044820152606401610e4e565b80600c54611d6691906144d4565b341015611da65760405162461bcd60e51b815260206004820152600e60248201526d1393d517d15393d551d7d195539160921b6044820152606401610e4e565b600e54601154611db690426144bd565b1180611dc55750601054600f54145b611e115760405162461bcd60e51b815260206004820152600f60248201527f5649502053414c4520504552494f4400000000000000000000000000000000006044820152606401610e4e565b61178081613224565b600a8054611e2790614447565b80601f0160208091040260200160405190810160405280929190818152602001828054611e5390614447565b8015611ea05780601f10611e7557610100808354040283529160200191611ea0565b820191906000526020600020905b815481529060010190602001808311611e8357829003601f168201915b505050505081565b60006001600160a01b038216611eea576040517f8f4eb60400000000000000000000000000000000000000000000000000000000815260040160405180910390fd5b506001600160a01b031660009081526005602052604090205467ffffffffffffffff1690565b611f18612df4565b611f226000613280565b565b600b8054611e2790614447565b611f39612fcd565b60026009541415611f7a5760405162461bcd60e51b815260206004820152601f602482015260008051602061467e8339815191526044820152606401610e4e565b6002600955611f8882612dbf565b611fa557604051630a14c4b560e41b815260040160405180910390fd5b8060ff16600d54611fb691906144d4565b341015611ff65760405162461bcd60e51b815260206004820152600e60248201526d1393d517d15393d551d7d195539160921b6044820152606401610e4e565b60008160ff16116111df5760405162461bcd60e51b815260206004820152601260248201527f4c4556454c5f43414e5f4e4f545f42455f3000000000000000000000000000006044820152606401610e4e565b612051612df4565b600260095414156120925760405162461bcd60e51b815260206004820152601f602482015260008051602061467e8339815191526044820152606401610e4e565b60026009556117006132df565b606060008060006120af85611ea8565b905060008167ffffffffffffffff8111156120cc576120cc613def565b6040519080825280602002602001820160405280156120f5578160200160208202803683370190505b5060408051608081018252600080825260208201819052918101829052606081019190915290915060015b83861461219e5761213081613322565b915081604001511561214157612196565b81516001600160a01b03161561215657815194505b876001600160a01b0316856001600160a01b0316141561219657808387806001019850815181106121895761218961450b565b6020026020010181815250505b600101612120565b50909695505050505050565b6121b2612df4565b6121c381662386f26fc100006144d4565b600c5550565b606060038054610c6390614447565b6060818310612213576040517f32c1995a00000000000000000000000000000000000000000000000000000000815260040160405180910390fd5b60008061221f60005490565b9050600185101561222f57600194505b8084111561223b578093505b600061224687611ea8565b905084861015612265578585038181101561225f578091505b50612269565b5060005b60008167ffffffffffffffff81111561228457612284613def565b6040519080825280602002602001820160405280156122ad578160200160208202803683370190505b509050816122c057935061237692505050565b60006122cb886124e7565b9050600081604001516122dc575080515b885b8881141580156122ee5750848714155b1561236a576122fc81613322565b925082604001511561230d57612362565b82516001600160a01b03161561232257825191505b8a6001600160a01b0316826001600160a01b0316141561236257808488806001019950815181106123555761235561450b565b6020026020010181815250505b6001016122de565b50505092835250909150505b9392505050565b6001600160a01b0382163314156123c0576040517fb06307db00000000000000000000000000000000000000000000000000000000815260040160405180910390fd5b3360008181526007602090815260408083206001600160a01b03871680855290835292819020805460ff191686151590811790915590519081529192917f17307eab39ab6107e8899845ad3d59bd9653f200f220920489ca2b5937696c31910160405180910390a35050565b612434612df4565b600260095414156124755760405162461bcd60e51b815260206004820152601f602482015260008051602061467e8339815191526044820152606401610e4e565b6011556001600955565b612487612df4565b6012805460ff191660ff92909216919091179055565b6124a8848484610e9c565b6001600160a01b0383163b156124e1576124c4848484846133a1565b6124e1576040516368d2bf6b60e11b815260040160405180910390fd5b50505050565b604080516080810182526000808252602082018190529181018290526060810191909152604080516080810182526000808252602082018190529181018290526060810191909152600183108061254057506000548310155b1561254b5792915050565b61255483613322565b90508060400151156125665792915050565b61237683613498565b606061257a82612dbf565b61259757604051630a14c4b560e41b815260040160405180910390fd5b601254600160b01b900460ff1661263a57600b80546125b590614447565b80601f01602080910402602001604051908101604052809291908181526020018280546125e190614447565b801561262e5780601f106126035761010080835404028352916020019161262e565b820191906000526020600020905b81548152906001019060200180831161261157829003601f168201915b50505050509050919050565b6000828152601360205260408120805461265390614447565b80601f016020809104026020016040519081016040528092919081815260200182805461267f90614447565b80156126cc5780601f106126a1576101008083540402835291602001916126cc565b820191906000526020600020905b8154815290600101906020018083116126af57829003601f168201915b5050505050905060008151111561270557806040516020016126ee9190614521565b604051602081830303815290604052915050919050565b600061270f613510565b90508051600014156127305760405180602001604052806000815250612778565b600084815260156020526040902054819061274d9060ff1661351f565b6127568661351f565b6040516020016127689392919061453d565b6040516020818303038152906040525b949350505050565b612788612df4565b61279981662386f26fc100006144d4565b600d5550565b6001600160a01b0381166000908152600560205260408082205467ffffffffffffffff911c16610c4e565b6127d2612df4565b600260095414156128135760405162461bcd60e51b815260206004820152601f602482015260008051602061467e8339815191526044820152606401610e4e565b6002600955600054612825838361356e565b60005b6128336001846144bd565b81101561287e5760016015600061284a84866144f3565b81526020810191909152604001600020805460ff191660ff9290921691909117905580612876816145d3565b915050612828565b505060016009555050565b612891612df4565b600260095414156128d25760405162461bcd60e51b815260206004820152601f602482015260008051602061467e8339815191526044820152606401610e4e565b60128054911515600160b01b027fffffffffffffffffff00ffffffffffffffffffffffffffffffffffffffffffff9092169190911790556001600955565b612918612df4565b600260095414156129595760405162461bcd60e51b815260206004820152601f602482015260008051602061467e8339815191526044820152606401610e4e565b600260095580518251146129d55760405162461bcd60e51b815260206004820152602860248201527f5448452032204152524159532053484f554c442048415645205448452053414d60448201527f45204c454e4754480000000000000000000000000000000000000000000000006064820152608401610e4e565b60005b825181101561113757612a1d8382815181106129f6576129f661450b565b6020026020010151838381518110612a1057612a1061450b565b602002602001015161356e565b80612a27816145d3565b9150506129d8565b612a37612df4565b6001600160a01b038116612ab35760405162461bcd60e51b815260206004820152602660248201527f4f776e61626c653a206e6577206f776e657220697320746865207a65726f206160448201527f64647265737300000000000000000000000000000000000000000000000000006064820152608401610e4e565b612abc81613280565b50565b612ac7612fcd565b60026009541415612b085760405162461bcd60e51b815260206004820152601f602482015260008051602061467e8339815191526044820152606401610e4e565b6002600955601254849084906201000090046001600160a01b03166000612b808361135f866040517f19457468657265756d205369676e6564204d6573736167653a0a3332000000006020820152603c8101829052600090605c01604051602081830303815290604052805190602001209050919050565b9050816001600160a01b0316816001600160a01b031614612bd75760405162461bcd60e51b8152602060048201526011602482015270494e56414c49445f5349474e415455524560781b6044820152606401610e4e565b6040516bffffffffffffffffffffffff193360601b166020820152603481018790528890879082906054016040516020818303038152906040528051906020012014612c575760405162461bcd60e51b815260206004820152600f60248201526e494e56414c49445f4d45535341474560881b6044820152606401610e4e565b612c6087612dbf565b612c7d57604051630a14c4b560e41b815260040160405180910390fd5b612c8687611c62565b6001600160a01b0316336001600160a01b031614612ce65760405162461bcd60e51b815260206004820152600960248201527f4e4f54204f574e455200000000000000000000000000000000000000000000006044820152606401610e4e565b60125460008881526015602052604090205460ff6101009092048216911610612d515760405162461bcd60e51b815260206004820152601560248201527f524541434845445f4d4158494d554d5f4c4556454c00000000000000000000006044820152606401610e4e565b6000878152601560205260408120805460ff1691612d6e836145ee565b91906101000a81548160ff021916908360ff16021790555050505050505050600160098190555050505050565b612da3612df4565b6012805460ff9092166101000261ff0019909216919091179055565b600081600111158015612dd3575060005482105b8015610c4e575050600090815260046020526040902054600160e01b161590565b6008546001600160a01b03163314611f225760405162461bcd60e51b815260206004820181905260248201527f4f776e61626c653a2063616c6c6572206973206e6f7420746865206f776e65726044820152606401610e4e565b60008180600111612e9e57600054811015612e9e57600081815260046020526040902054600160e01b8116612e9c575b80612376575060001901600081815260046020526040902054612e7e565b505b6040517fdf2d9b4200000000000000000000000000000000000000000000000000000000815260040160405180910390fd5b612ed982612dbf565b156124e157604080516080810182526000808252602082018190529181018290526060810191909152612f0b83613498565b9050806040015115612f5f5760405162461bcd60e51b815260206004820152601560248201527f5448495320544f4b454e20574153204255524e454400000000000000000000006044820152606401610e4e565b60125460008481526015602052604090205460ff91821691161015612fc65760405162461bcd60e51b815260206004820152601d60248201527f4e45454420544f204c4556454c555020544f204c49455554454e414e540000006044820152606401610e4e565b5050505050565b600854600160a01b900460ff1615611f225760405162461bcd60e51b815260206004820152601060248201527f5061757361626c653a20706175736564000000000000000000000000000000006044820152606401610e4e565b600080600061303685856136a7565b9150915061304381613717565b509392505050565b6116a68282604051806020016040528060008152506138d2565b61306d613938565b6008805460ff60a01b191690557f5db9ee0a495bf2e6ff9c91a7834c1ba4fdd244a5e8aa4e537bd38aeae4b073aa335b6040516001600160a01b03909116815260200160405180910390a1565b60006130c583612e4e565b9050806000806130e386600090815260066020526040902080549091565b915091508415613123576130f8818433610f0b565b613123576131068333610aa9565b61312357604051632ce44b5f60e11b815260040160405180910390fd5b613131836000886001612ed0565b801561313c57600082555b6001600160a01b038316600081815260056020526040902080546fffffffffffffffffffffffffffffffff0190554260a01b177c030000000000000000000000000000000000000000000000000000000017600087815260046020526040902055600160e11b84166131dc57600186016000818152600460205260409020546131da5760005481146131da5760008181526004602052604090208590555b505b60405186906000906001600160a01b038616907fddf252ad1be2c89b69c2b068fc378daa952ba7f163c4a11628f55a4df523b3ef908390a45050600180548101905550505050565b600054613231338361304b565b60005b828110156117225760016015600061324c84866144f3565b81526020810191909152604001600020805460ff191660ff9290921691909117905580613278816145d3565b915050613234565b600880546001600160a01b0383811673ffffffffffffffffffffffffffffffffffffffff19831681179093556040519116919082907f8be0079c531659141344cd1fd0a4f28419497f9722a3daafe3b4186f6b6457e090600090a35050565b6132e7612fcd565b6008805460ff60a01b1916600160a01b1790557f62e78cea01bee320cd4e420270b5ea74000d11b0c9f74754ebdbfc544b05a25861309d3390565b604080516080810182526000808252602082018190529181018290526060810191909152600082815260046020526040902054610c4e90604080516080810182526001600160a01b038316815260a083901c67ffffffffffffffff166020820152600160e01b831615159181019190915260e89190911c606082015290565b604051630a85bd0160e11b81526000906001600160a01b0385169063150b7a02906133d690339089908890889060040161460e565b602060405180830381600087803b1580156133f057600080fd5b505af1925050508015613420575060408051601f3d908101601f1916820190925261341d9181019061464a565b60015b61347b573d80801561344e576040519150601f19603f3d011682016040523d82523d6000602084013e613453565b606091505b508051613473576040516368d2bf6b60e11b815260040160405180910390fd5b805181602001fd5b6001600160e01b031916630a85bd0160e11b149050949350505050565b604080516080810182526000808252602082018190529181018290526060810191909152610c4e6134c883612e4e565b604080516080810182526001600160a01b038316815260a083901c67ffffffffffffffff166020820152600160e01b831615159181019190915260e89190911c606082015290565b6060600a8054610c6390614447565b604080516080810191829052607f0190826030600a8206018353600a90045b801561355c57600183039250600a81066030018353600a900461353e565b50819003601f19909101908152919050565b6001600160a01b0382166135c45760405162461bcd60e51b815260206004820152601860248201527f30204953204e4f5420412056414c4944204144445245535300000000000000006044820152606401610e4e565b600081116136145760405162461bcd60e51b815260206004820152601760248201527f30204953204e4f542056414c4944205155414e544949590000000000000000006044820152606401610e4e565b600054613621838361304b565b60005b828110156124e15760016014600061363c84866144f3565b815260200190815260200160002060006101000a81548160ff021916908315150217905550600160156000838561367391906144f3565b81526020810191909152604001600020805460ff191660ff929092169190911790558061369f816145d3565b915050613624565b6000808251604114156136de5760208301516040840151606085015160001a6136d287828585613991565b94509450505050613710565b82516040141561370857602083015160408401516136fd868383613a7e565b935093505050613710565b506000905060025b9250929050565b600081600481111561372b5761372b614667565b14156137345750565b600181600481111561374857613748614667565b14156137965760405162461bcd60e51b815260206004820152601860248201527f45434453413a20696e76616c6964207369676e617475726500000000000000006044820152606401610e4e565b60028160048111156137aa576137aa614667565b14156137f85760405162461bcd60e51b815260206004820152601f60248201527f45434453413a20696e76616c6964207369676e6174757265206c656e677468006044820152606401610e4e565b600381600481111561380c5761380c614667565b14156138655760405162461bcd60e51b815260206004820152602260248201527f45434453413a20696e76616c6964207369676e6174757265202773272076616c604482015261756560f01b6064820152608401610e4e565b600481600481111561387957613879614667565b1415612abc5760405162461bcd60e51b815260206004820152602260248201527f45434453413a20696e76616c6964207369676e6174757265202776272076616c604482015261756560f01b6064820152608401610e4e565b6138dc8383613ad0565b6001600160a01b0383163b15611722576000548281035b61390660008683806001019450866133a1565b613923576040516368d2bf6b60e11b815260040160405180910390fd5b8181106138f3578160005414612fc657600080fd5b600854600160a01b900460ff16611f225760405162461bcd60e51b815260206004820152601460248201527f5061757361626c653a206e6f74207061757365640000000000000000000000006044820152606401610e4e565b6000807f7fffffffffffffffffffffffffffffff5d576e7357a4501ddfe92f46681b20a08311156139c85750600090506003613a75565b8460ff16601b141580156139e057508460ff16601c14155b156139f15750600090506004613a75565b6040805160008082526020820180845289905260ff881692820192909252606081018690526080810185905260019060a0016020604051602081039080840390855afa158015613a45573d6000803e3d6000fd5b5050604051601f1901519150506001600160a01b038116613a6e57600060019250925050613a75565b9150600090505b94509492505050565b6000807f7fffffffffffffffffffffffffffffffffffffffffffffffffffffffffffffff831681613ab460ff86901c601b6144f3565b9050613ac287828885613991565b935093505050935093915050565b60005481613b0a576040517fb562e8dd00000000000000000000000000000000000000000000000000000000815260040160405180910390fd5b613b176000848385612ed0565b6001600160a01b03831660008181526005602090815260408083208054680100000000000000018802019055848352600490915281206001851460e11b4260a01b178317905582840190839083907fddf252ad1be2c89b69c2b068fc378daa952ba7f163c4a11628f55a4df523b3ef8180a4600183015b818114613bc657808360007fddf252ad1be2c89b69c2b068fc378daa952ba7f163c4a11628f55a4df523b3ef600080a4600101613b8e565b5081613bfe576040517f2e07630000000000000000000000000000000000000000000000000000000000815260040160405180910390fd5b60005550505050565b828054613c1390614447565b90600052602060002090601f016020900481019282613c355760008555613c7b565b82601f10613c4e57805160ff1916838001178555613c7b565b82800160010185558215613c7b579182015b82811115613c7b578251825591602001919060010190613c60565b50613c87929150613c8b565b5090565b5b80821115613c875760008155600101613c8c565b6001600160e01b031981168114612abc57600080fd5b600060208284031215613cc857600080fd5b813561237681613ca0565b60005b83811015613cee578181015183820152602001613cd6565b838111156124e15750506000910152565b60008151808452613d17816020860160208601613cd3565b601f01601f19169290920160200192915050565b6020815260006123766020830184613cff565b600060208284031215613d5057600080fd5b5035919050565b80356001600160a01b038116811461183157600080fd5b60008060408385031215613d8157600080fd5b613d8a83613d57565b946020939093013593505050565b600060208284031215613daa57600080fd5b61237682613d57565b600080600060608486031215613dc857600080fd5b613dd184613d57565b9250613ddf60208501613d57565b9150604084013590509250925092565b634e487b7160e01b600052604160045260246000fd5b604051601f8201601f1916810167ffffffffffffffff81118282101715613e2e57613e2e613def565b604052919050565b600082601f830112613e4757600080fd5b813567ffffffffffffffff811115613e6157613e61613def565b613e74601f8201601f1916602001613e05565b818152846020838601011115613e8957600080fd5b816020850160208301376000918101602001919091529392505050565b60008060408385031215613eb957600080fd5b82359150602083013567ffffffffffffffff811115613ed757600080fd5b613ee385828601613e36565b9150509250929050565b803560ff8116811461183157600080fd5b60008060408385031215613f1157600080fd5b82359150613f2160208401613eed565b90509250929050565b600080600060608486031215613f3f57600080fd5b83359250602084013567ffffffffffffffff811115613f5d57600080fd5b613f6986828701613e36565b925050604084013590509250925092565b8035801515811461183157600080fd5b60008060408385031215613f9d57600080fd5b613fa683613d57565b9150613f2160208401613f7a565b600060208284031215613fc657600080fd5b813567ffffffffffffffff811115613fdd57600080fd5b61277884828501613e36565b60008060008060808587031215613fff57600080fd5b8435935060208501359250604085013567ffffffffffffffff81111561402457600080fd5b61403087828801613e36565b949793965093946060013593505050565b6000806020838503121561405457600080fd5b823567ffffffffffffffff8082111561406c57600080fd5b818501915085601f83011261408057600080fd5b81358181111561408f57600080fd5b8660208260051b85010111156140a457600080fd5b60209290920196919550909350505050565b6020808252825182820181905260009190848201906040850190845b8181101561219e576141208385516001600160a01b03815116825267ffffffffffffffff602082015116602083015260408101511515604083015262ffffff60608201511660608301525050565b92840192608092909201916001016140d2565b6020808252825182820181905260009190848201906040850190845b8181101561219e5783518352928401929184019160010161414f565b60008060006060848603121561418057600080fd5b61418984613d57565b95602085013595506040909401359392505050565b6000602082840312156141b057600080fd5b61237682613eed565b600080600080608085870312156141cf57600080fd5b6141d885613d57565b93506141e660208601613d57565b925060408501359150606085013567ffffffffffffffff81111561420957600080fd5b61421587828801613e36565b91505092959194509250565b81516001600160a01b0316815260208083015167ffffffffffffffff169082015260408083015115159082015260608083015162ffffff169082015260808101610c4e565b60006020828403121561427857600080fd5b61237682613f7a565b6000806040838503121561429457600080fd5b61429d83613d57565b9150613f2160208401613d57565b600067ffffffffffffffff8211156142c5576142c5613def565b5060051b60200190565b600082601f8301126142e057600080fd5b813560206142f56142f0836142ab565b613e05565b82815260059290921b8401810191818101908684111561431457600080fd5b8286015b8481101561432f5780358352918301918301614318565b509695505050505050565b6000806040838503121561434d57600080fd5b823567ffffffffffffffff8082111561436557600080fd5b818501915085601f83011261437957600080fd5b813560206143896142f0836142ab565b82815260059290921b840181019181810190898411156143a857600080fd5b948201945b838610156143cd576143be86613d57565b825294820194908201906143ad565b965050860135925050808211156143e357600080fd5b50613ee3858286016142cf565b6000806000806080858703121561440657600080fd5b84359350602085013567ffffffffffffffff81111561442457600080fd5b61443087828801613e36565b949794965050505060408301359260600135919050565b600181811c9082168061445b57607f821691505b6020821081141561447c57634e487b7160e01b600052602260045260246000fd5b50919050565b634e487b7160e01b600052601160045260246000fd5b600060ff821660ff84168060ff038211156144b5576144b5614482565b019392505050565b6000828210156144cf576144cf614482565b500390565b60008160001904831182151516156144ee576144ee614482565b500290565b6000821982111561450657614506614482565b500190565b634e487b7160e01b600052603260045260246000fd5b60008251614533818460208701613cd3565b9190910192915050565b6000845161454f818460208901613cd3565b845190830190614563818360208901613cd3565b7f2f000000000000000000000000000000000000000000000000000000000000009101908152835161459c816001840160208801613cd3565b7f2e6a736f6e0000000000000000000000000000000000000000000000000000006001929091019182015260060195945050505050565b60006000198214156145e7576145e7614482565b5060010190565b600060ff821660ff81141561460557614605614482565b60010192915050565b60006001600160a01b038087168352808616602084015250836040830152608060608301526146406080830184613cff565b9695505050505050565b60006020828403121561465c57600080fd5b815161237681613ca0565b634e487b7160e01b600052602160045260246000fdfe5265656e7472616e637947756172643a207265656e7472616e742063616c6c00a2646970667358221220345b1aa85c2ad3a0bfd1d15a559b5676757c19da05f047546b55c0c27515cc9464736f6c63430008090033ddf252ad1be2c89b69c2b068fc378daa952ba7f163c4a11628f55a4df523b3ef",
  "linkReferences": {},
  "deployedLinkReferences": {}
}