{
  "_format": "hh-sol-artifact-1",
  "contractName": "EMRecruit",
  "sourceName": "contracts/EMRecruit.sol",
  "abi": [
    {
      "inputs": [
        {
          "internalType": "string",
          "name": "name_",
          "type": "string"
        },
        {
          "internalType": "string",
          "name": "symbol_",
          "type": "string"
        },
        {
          "internalType": "string",
          "name": "baseUri_",
          "type": "string"
        },
        {
          "internalType": "string",
          "name": "notRevealedUri_",
          "type": "string"
        },
        {
          "internalType": "address",
          "name": "siger_",
          "type": "address"
        }
      ],
      "stateMutability": "nonpayable",
      "type": "constructor"
    },
    {
      "inputs": [],
      "name": "ApprovalCallerNotOwnerNorApproved",
      "type": "error"
    },
    {
      "inputs": [],
      "name": "ApprovalQueryForNonexistentToken",
      "type": "error"
    },
    {
      "inputs": [],
      "name": "ApproveToCaller",
      "type": "error"
    },
    {
      "inputs": [],
      "name": "BalanceQueryForZeroAddress",
      "type": "error"
    },
    {
      "inputs": [],
      "name": "InvalidQueryRange",
      "type": "error"
    },
    {
      "inputs": [],
      "name": "MintERC2309QuantityExceedsLimit",
      "type": "error"
    },
    {
      "inputs": [],
      "name": "MintToZeroAddress",
      "type": "error"
    },
    {
      "inputs": [],
      "name": "MintZeroQuantity",
      "type": "error"
    },
    {
      "inputs": [],
      "name": "OwnerQueryForNonexistentToken",
      "type": "error"
    },
    {
      "inputs": [],
      "name": "OwnershipNotInitializedForExtraData",
      "type": "error"
    },
    {
      "inputs": [],
      "name": "TransferCallerNotOwnerNorApproved",
      "type": "error"
    },
    {
      "inputs": [],
      "name": "TransferFromIncorrectOwner",
      "type": "error"
    },
    {
      "inputs": [],
      "name": "TransferToNonERC721ReceiverImplementer",
      "type": "error"
    },
    {
      "inputs": [],
      "name": "TransferToZeroAddress",
      "type": "error"
    },
    {
      "inputs": [],
      "name": "URIQueryForNonexistentToken",
      "type": "error"
    },
    {
      "anonymous": false,
      "inputs": [
        {
          "indexed": true,
          "internalType": "address",
          "name": "owner",
          "type": "address"
        },
        {
          "indexed": true,
          "internalType": "address",
          "name": "approved",
          "type": "address"
        },
        {
          "indexed": true,
          "internalType": "uint256",
          "name": "tokenId",
          "type": "uint256"
        }
      ],
      "name": "Approval",
      "type": "event"
    },
    {
      "anonymous": false,
      "inputs": [
        {
          "indexed": true,
          "internalType": "address",
          "name": "owner",
          "type": "address"
        },
        {
          "indexed": true,
          "internalType": "address",
          "name": "operator",
          "type": "address"
        },
        {
          "indexed": false,
          "internalType": "bool",
          "name": "approved",
          "type": "bool"
        }
      ],
      "name": "ApprovalForAll",
      "type": "event"
    },
    {
      "anonymous": false,
      "inputs": [
        {
          "indexed": true,
          "internalType": "uint256",
          "name": "fromTokenId",
          "type": "uint256"
        },
        {
          "indexed": false,
          "internalType": "uint256",
          "name": "toTokenId",
          "type": "uint256"
        },
        {
          "indexed": true,
          "internalType": "address",
          "name": "from",
          "type": "address"
        },
        {
          "indexed": true,
          "internalType": "address",
          "name": "to",
          "type": "address"
        }
      ],
      "name": "ConsecutiveTransfer",
      "type": "event"
    },
    {
      "anonymous": false,
      "inputs": [
        {
          "indexed": true,
          "internalType": "address",
          "name": "previousOwner",
          "type": "address"
        },
        {
          "indexed": true,
          "internalType": "address",
          "name": "newOwner",
          "type": "address"
        }
      ],
      "name": "OwnershipTransferred",
      "type": "event"
    },
    {
      "anonymous": false,
      "inputs": [
        {
          "indexed": false,
          "internalType": "address",
          "name": "account",
          "type": "address"
        }
      ],
      "name": "Paused",
      "type": "event"
    },
    {
      "anonymous": false,
      "inputs": [
        {
          "indexed": true,
          "internalType": "address",
          "name": "from",
          "type": "address"
        },
        {
          "indexed": true,
          "internalType": "address",
          "name": "to",
          "type": "address"
        },
        {
          "indexed": true,
          "internalType": "uint256",
          "name": "tokenId",
          "type": "uint256"
        }
      ],
      "name": "Transfer",
      "type": "event"
    },
    {
      "anonymous": false,
      "inputs": [
        {
          "indexed": false,
          "internalType": "address",
          "name": "account",
          "type": "address"
        }
      ],
      "name": "Unpaused",
      "type": "event"
    },
    {
      "inputs": [
        {
          "internalType": "address",
          "name": "to",
          "type": "address"
        },
        {
          "internalType": "uint256",
          "name": "tokenId",
          "type": "uint256"
        }
      ],
      "name": "approve",
      "outputs": [],
      "stateMutability": "nonpayable",
      "type": "function"
    },
    {
      "inputs": [
        {
          "internalType": "address",
          "name": "owner",
          "type": "address"
        }
      ],
      "name": "balanceOf",
      "outputs": [
        {
          "internalType": "uint256",
          "name": "",
          "type": "uint256"
        }
      ],
      "stateMutability": "view",
      "type": "function"
    },
    {
      "inputs": [],
      "name": "baseURI",
      "outputs": [
        {
          "internalType": "string",
          "name": "",
          "type": "string"
        }
      ],
      "stateMutability": "view",
      "type": "function"
    },
    {
      "inputs": [
        {
          "internalType": "uint256",
          "name": "_tokenId",
          "type": "uint256"
        }
      ],
      "name": "burn",
      "outputs": [],
      "stateMutability": "nonpayable",
      "type": "function"
    },
    {
      "inputs": [
        {
          "internalType": "uint256",
          "name": "_quatity",
          "type": "uint256"
        }
      ],
      "name": "buyRecuit",
      "outputs": [],
      "stateMutability": "payable",
      "type": "function"
    },
    {
      "inputs": [
        {
          "internalType": "uint256",
          "name": "tokenId",
          "type": "uint256"
        }
      ],
      "name": "explicitOwnershipOf",
      "outputs": [
        {
          "components": [
            {
              "internalType": "address",
              "name": "addr",
              "type": "address"
            },
            {
              "internalType": "uint64",
              "name": "startTimestamp",
              "type": "uint64"
            },
            {
              "internalType": "bool",
              "name": "burned",
              "type": "bool"
            },
            {
              "internalType": "uint24",
              "name": "extraData",
              "type": "uint24"
            }
          ],
          "internalType": "struct IERC721A.TokenOwnership",
          "name": "",
          "type": "tuple"
        }
      ],
      "stateMutability": "view",
      "type": "function"
    },
    {
      "inputs": [
        {
          "internalType": "uint256[]",
          "name": "tokenIds",
          "type": "uint256[]"
        }
      ],
      "name": "explicitOwnershipsOf",
      "outputs": [
        {
          "components": [
            {
              "internalType": "address",
              "name": "addr",
              "type": "address"
            },
            {
              "internalType": "uint64",
              "name": "startTimestamp",
              "type": "uint64"
            },
            {
              "internalType": "bool",
              "name": "burned",
              "type": "bool"
            },
            {
              "internalType": "uint24",
              "name": "extraData",
              "type": "uint24"
            }
          ],
          "internalType": "struct IERC721A.TokenOwnership[]",
          "name": "",
          "type": "tuple[]"
        }
      ],
      "stateMutability": "view",
      "type": "function"
    },
    {
      "inputs": [
        {
          "internalType": "uint256",
          "name": "tokenId",
          "type": "uint256"
        }
      ],
      "name": "getApproved",
      "outputs": [
        {
          "internalType": "address",
          "name": "",
          "type": "address"
        }
      ],
      "stateMutability": "view",
      "type": "function"
    },
    {
      "inputs": [
        {
          "internalType": "address",
          "name": "",
          "type": "address"
        }
      ],
      "name": "hasFreeMinted",
      "outputs": [
        {
          "internalType": "bool",
          "name": "",
          "type": "bool"
        }
      ],
      "stateMutability": "view",
      "type": "function"
    },
    {
      "inputs": [
        {
          "internalType": "address",
          "name": "owner",
          "type": "address"
        },
        {
          "internalType": "address",
          "name": "operator",
          "type": "address"
        }
      ],
      "name": "isApprovedForAll",
      "outputs": [
        {
          "internalType": "bool",
          "name": "",
          "type": "bool"
        }
      ],
      "stateMutability": "view",
      "type": "function"
    },
    {
      "inputs": [
        {
          "internalType": "uint256",
          "name": "",
          "type": "uint256"
        }
      ],
      "name": "isFreeToken",
      "outputs": [
        {
          "internalType": "bool",
          "name": "",
          "type": "bool"
        }
      ],
      "stateMutability": "view",
      "type": "function"
    },
    {
      "inputs": [
        {
          "internalType": "bytes32",
          "name": "_msgHash",
          "type": "bytes32"
        },
        {
          "internalType": "bytes",
          "name": "_signature",
          "type": "bytes"
        },
        {
          "internalType": "uint256",
          "name": "_at",
          "type": "uint256"
        },
        {
          "internalType": "uint256",
          "name": "_tokenId",
          "type": "uint256"
        },
        {
          "internalType": "uint8",
          "name": "_level",
          "type": "uint8"
        }
      ],
      "name": "levelUp",
      "outputs": [],
      "stateMutability": "nonpayable",
      "type": "function"
    },
    {
      "inputs": [
        {
          "internalType": "uint256",
          "name": "_tokenId",
          "type": "uint256"
        },
        {
          "internalType": "uint8",
          "name": "_level",
          "type": "uint8"
        }
      ],
      "name": "levelUpByOwner",
      "outputs": [],
      "stateMutability": "nonpayable",
      "type": "function"
    },
    {
      "inputs": [],
      "name": "levelUpprice",
      "outputs": [
        {
          "internalType": "uint256",
          "name": "",
          "type": "uint256"
        }
      ],
      "stateMutability": "view",
      "type": "function"
    },
    {
      "inputs": [],
      "name": "lieutenantLevel",
      "outputs": [
        {
          "internalType": "uint8",
          "name": "",
          "type": "uint8"
        }
      ],
      "stateMutability": "view",
      "type": "function"
    },
    {
      "inputs": [],
      "name": "maxLevel",
      "outputs": [
        {
          "internalType": "uint8",
          "name": "",
          "type": "uint8"
        }
      ],
      "stateMutability": "view",
      "type": "function"
    },
    {
      "inputs": [],
      "name": "name",
      "outputs": [
        {
          "internalType": "string",
          "name": "",
          "type": "string"
        }
      ],
      "stateMutability": "view",
      "type": "function"
    },
    {
      "inputs": [],
      "name": "notRevealedURI",
      "outputs": [
        {
          "internalType": "string",
          "name": "",
          "type": "string"
        }
      ],
      "stateMutability": "view",
      "type": "function"
    },
    {
      "inputs": [
        {
          "internalType": "address",
          "name": "_owner",
          "type": "address"
        }
      ],
      "name": "numberMinted",
      "outputs": [
        {
          "internalType": "uint256",
          "name": "",
          "type": "uint256"
        }
      ],
      "stateMutability": "view",
      "type": "function"
    },
    {
      "inputs": [
        {
          "internalType": "address",
          "name": "",
          "type": "address"
        }
      ],
      "name": "operators",
      "outputs": [
        {
          "internalType": "bool",
          "name": "",
          "type": "bool"
        }
      ],
      "stateMutability": "view",
      "type": "function"
    },
    {
      "inputs": [],
      "name": "owner",
      "outputs": [
        {
          "internalType": "address",
          "name": "",
          "type": "address"
        }
      ],
      "stateMutability": "view",
      "type": "function"
    },
    {
      "inputs": [
        {
          "internalType": "uint256",
          "name": "tokenId",
          "type": "uint256"
        }
      ],
      "name": "ownerOf",
      "outputs": [
        {
          "internalType": "address",
          "name": "",
          "type": "address"
        }
      ],
      "stateMutability": "view",
      "type": "function"
    },
    {
      "inputs": [],
      "name": "pause",
      "outputs": [],
      "stateMutability": "nonpayable",
      "type": "function"
    },
    {
      "inputs": [],
      "name": "paused",
      "outputs": [
        {
          "internalType": "bool",
          "name": "",
          "type": "bool"
        }
      ],
      "stateMutability": "view",
      "type": "function"
    },
    {
      "inputs": [
        {
          "internalType": "uint256",
          "name": "_tokenId",
          "type": "uint256"
        },
        {
          "internalType": "uint8",
          "name": "_level",
          "type": "uint8"
        }
      ],
      "name": "payForlevelUp",
      "outputs": [],
      "stateMutability": "payable",
      "type": "function"
    },
    {
      "inputs": [],
      "name": "price",
      "outputs": [
        {
          "internalType": "uint256",
          "name": "",
          "type": "uint256"
        }
      ],
      "stateMutability": "view",
      "type": "function"
    },
    {
      "inputs": [
        {
          "internalType": "uint256",
          "name": "",
          "type": "uint256"
        }
      ],
      "name": "recuitToLevel",
      "outputs": [
        {
          "internalType": "uint8",
          "name": "",
          "type": "uint8"
        }
      ],
      "stateMutability": "view",
      "type": "function"
    },
    {
      "inputs": [],
      "name": "renounceOwnership",
      "outputs": [],
      "stateMutability": "nonpayable",
      "type": "function"
    },
    {
      "inputs": [],
      "name": "revealed",
      "outputs": [
        {
          "internalType": "bool",
          "name": "",
          "type": "bool"
        }
      ],
      "stateMutability": "view",
      "type": "function"
    },
    {
      "inputs": [
        {
          "internalType": "bytes32",
          "name": "_msgHash",
          "type": "bytes32"
        },
        {
          "internalType": "bytes",
          "name": "_signature",
          "type": "bytes"
        },
        {
          "internalType": "uint256",
          "name": "at",
          "type": "uint256"
        }
      ],
      "name": "safeMint",
      "outputs": [],
      "stateMutability": "nonpayable",
      "type": "function"
    },
    {
      "inputs": [
        {
          "internalType": "address[]",
          "name": "_tos",
          "type": "address[]"
        },
        {
          "internalType": "uint256[]",
          "name": "_quantities",
          "type": "uint256[]"
        }
      ],
      "name": "safeMintBatchByOwner",
      "outputs": [],
      "stateMutability": "nonpayable",
      "type": "function"
    },
    {
      "inputs": [
        {
          "internalType": "address",
          "name": "_to",
          "type": "address"
        },
        {
          "internalType": "uint256",
          "name": "_quantity",
          "type": "uint256"
        }
      ],
      "name": "safeMintByOwner",
      "outputs": [],
      "stateMutability": "nonpayable",
      "type": "function"
    },
    {
      "inputs": [
        {
          "internalType": "address",
          "name": "from",
          "type": "address"
        },
        {
          "internalType": "address",
          "name": "to",
          "type": "address"
        },
        {
          "internalType": "uint256",
          "name": "tokenId",
          "type": "uint256"
        }
      ],
      "name": "safeTransferFrom",
      "outputs": [],
      "stateMutability": "nonpayable",
      "type": "function"
    },
    {
      "inputs": [
        {
          "internalType": "address",
          "name": "from",
          "type": "address"
        },
        {
          "internalType": "address",
          "name": "to",
          "type": "address"
        },
        {
          "internalType": "uint256",
          "name": "tokenId",
          "type": "uint256"
        },
        {
          "internalType": "bytes",
          "name": "_data",
          "type": "bytes"
        }
      ],
      "name": "safeTransferFrom",
      "outputs": [],
      "stateMutability": "nonpayable",
      "type": "function"
    },
    {
      "inputs": [
        {
          "internalType": "address",
          "name": "operator",
          "type": "address"
        },
        {
          "internalType": "bool",
          "name": "approved",
          "type": "bool"
        }
      ],
      "name": "setApprovalForAll",
      "outputs": [],
      "stateMutability": "nonpayable",
      "type": "function"
    },
    {
      "inputs": [
        {
          "internalType": "string",
          "name": "_uri",
          "type": "string"
        }
      ],
      "name": "setBaseURI",
      "outputs": [
        {
          "internalType": "bool",
          "name": "",
          "type": "bool"
        }
      ],
      "stateMutability": "nonpayable",
      "type": "function"
    },
    {
      "inputs": [
        {
          "internalType": "uint256",
          "name": "_price",
          "type": "uint256"
        }
      ],
      "name": "setLevelUpprice",
      "outputs": [],
      "stateMutability": "nonpayable",
      "type": "function"
    },
    {
      "inputs": [
        {
          "internalType": "uint8",
          "name": "_level",
          "type": "uint8"
        }
      ],
      "name": "setLieutenantLevel",
      "outputs": [],
      "stateMutability": "nonpayable",
      "type": "function"
    },
    {
      "inputs": [
        {
          "internalType": "uint8",
          "name": "_maxLevel",
          "type": "uint8"
        }
      ],
      "name": "setMaximumLevel",
      "outputs": [],
      "stateMutability": "nonpayable",
      "type": "function"
    },
    {
      "inputs": [
        {
          "internalType": "address",
          "name": "operator",
          "type": "address"
        },
        {
          "internalType": "bool",
          "name": "approved",
          "type": "bool"
        }
      ],
      "name": "setOperator",
      "outputs": [],
      "stateMutability": "nonpayable",
      "type": "function"
    },
    {
      "inputs": [
        {
          "internalType": "uint256",
          "name": "_price",
          "type": "uint256"
        }
      ],
      "name": "setPrice",
      "outputs": [],
      "stateMutability": "nonpayable",
      "type": "function"
    },
    {
      "inputs": [
        {
          "internalType": "bool",
          "name": "_reveale",
          "type": "bool"
        }
      ],
      "name": "setRevealed",
      "outputs": [],
      "stateMutability": "nonpayable",
      "type": "function"
    },
    {
      "inputs": [
        {
          "internalType": "address",
          "name": "_systemSigner",
          "type": "address"
        }
      ],
      "name": "setSystemSigner",
      "outputs": [],
      "stateMutability": "nonpayable",
      "type": "function"
    },
    {
      "inputs": [
        {
          "internalType": "uint256",
          "name": "_tokenId",
          "type": "uint256"
        },
        {
          "internalType": "string",
          "name": "_tokenURI",
          "type": "string"
        }
      ],
      "name": "setTokenURIByOnwer",
      "outputs": [],
      "stateMutability": "nonpayable",
      "type": "function"
    },
    {
      "inputs": [
        {
          "internalType": "uint256",
          "name": "_period",
          "type": "uint256"
        }
      ],
      "name": "setVipMintingPeriod",
      "outputs": [],
      "stateMutability": "nonpayable",
      "type": "function"
    },
    {
      "inputs": [
        {
          "internalType": "uint256",
          "name": "_vipSaleStartTime",
          "type": "uint256"
        }
      ],
      "name": "setVipSaleStartTime",
      "outputs": [],
      "stateMutability": "nonpayable",
      "type": "function"
    },
    {
      "inputs": [
        {
          "internalType": "bytes4",
          "name": "interfaceId",
          "type": "bytes4"
        }
      ],
      "name": "supportsInterface",
      "outputs": [
        {
          "internalType": "bool",
          "name": "",
          "type": "bool"
        }
      ],
      "stateMutability": "view",
      "type": "function"
    },
    {
      "inputs": [],
      "name": "symbol",
      "outputs": [
        {
          "internalType": "string",
          "name": "",
          "type": "string"
        }
      ],
      "stateMutability": "view",
      "type": "function"
    },
    {
      "inputs": [
        {
          "internalType": "uint256",
          "name": "_tokenId",
          "type": "uint256"
        }
      ],
      "name": "tokenURI",
      "outputs": [
        {
          "internalType": "string",
          "name": "",
          "type": "string"
        }
      ],
      "stateMutability": "view",
      "type": "function"
    },
    {
      "inputs": [
        {
          "internalType": "address",
          "name": "owner",
          "type": "address"
        }
      ],
      "name": "tokensOfOwner",
      "outputs": [
        {
          "internalType": "uint256[]",
          "name": "",
          "type": "uint256[]"
        }
      ],
      "stateMutability": "view",
      "type": "function"
    },
    {
      "inputs": [
        {
          "internalType": "address",
          "name": "owner",
          "type": "address"
        },
        {
          "internalType": "uint256",
          "name": "start",
          "type": "uint256"
        },
        {
          "internalType": "uint256",
          "name": "stop",
          "type": "uint256"
        }
      ],
      "name": "tokensOfOwnerIn",
      "outputs": [
        {
          "internalType": "uint256[]",
          "name": "",
          "type": "uint256[]"
        }
      ],
      "stateMutability": "view",
      "type": "function"
    },
    {
      "inputs": [],
      "name": "totalMinted",
      "outputs": [
        {
          "internalType": "uint256",
          "name": "",
          "type": "uint256"
        }
      ],
      "stateMutability": "view",
      "type": "function"
    },
    {
      "inputs": [],
      "name": "totalSupply",
      "outputs": [
        {
          "internalType": "uint256",
          "name": "",
          "type": "uint256"
        }
      ],
      "stateMutability": "view",
      "type": "function"
    },
    {
      "inputs": [
        {
          "internalType": "address",
          "name": "from",
          "type": "address"
        },
        {
          "internalType": "address",
          "name": "to",
          "type": "address"
        },
        {
          "internalType": "uint256",
          "name": "tokenId",
          "type": "uint256"
        }
      ],
      "name": "transferFrom",
      "outputs": [],
      "stateMutability": "nonpayable",
      "type": "function"
    },
    {
      "inputs": [
        {
          "internalType": "address",
          "name": "newOwner",
          "type": "address"
        }
      ],
      "name": "transferOwnership",
      "outputs": [],
      "stateMutability": "nonpayable",
      "type": "function"
    },
    {
      "inputs": [],
      "name": "unpause",
      "outputs": [],
      "stateMutability": "nonpayable",
      "type": "function"
    },
    {
      "inputs": [],
      "name": "vipMintingPeriod",
      "outputs": [
        {
          "internalType": "uint256",
          "name": "",
          "type": "uint256"
        }
      ],
      "stateMutability": "view",
      "type": "function"
    },
    {
      "inputs": [
        {
          "internalType": "uint256",
          "name": "_quatity",
          "type": "uint256"
        },
        {
          "internalType": "bytes32",
          "name": "_msgHash",
          "type": "bytes32"
        },
        {
          "internalType": "bytes",
          "name": "_signature",
          "type": "bytes"
        },
        {
          "internalType": "uint256",
          "name": "at",
          "type": "uint256"
        }
      ],
      "name": "vipSale",
      "outputs": [],
      "stateMutability": "payable",
      "type": "function"
    },
    {
      "inputs": [],
      "name": "vipSaleStartTime",
      "outputs": [
        {
          "internalType": "uint256",
          "name": "",
          "type": "uint256"
        }
      ],
      "stateMutability": "view",
      "type": "function"
    },
    {
      "inputs": [],
      "name": "withdraw",
      "outputs": [],
      "stateMutability": "nonpayable",
      "type": "function"
    }
  ],
  "bytecode": "0x60806040526618838370f34000600c819055600d5562015180600e556362dad55b600f55610bb86010556011805461ffff60ff60b01b0119166104041790553480156200004b57600080fd5b5060405162004c6438038062004c648339810160408190526200006e91620002e7565b8451859085906200008790600290602085019062000174565b5080516200009d90600390602084019062000174565b505061047f60005550620000b13362000122565b6008805460ff60a01b1916905560016009558251620000d890600a90602086019062000174565b508151620000ee90600b90602085019062000174565b50601180546001600160a01b03909216620100000262010000600160b01b0319909216919091179055506200040192505050565b600880546001600160a01b038381166001600160a01b0319831681179093556040519116919082907f8be0079c531659141344cd1fd0a4f28419497f9722a3daafe3b4186f6b6457e090600090a35050565b8280546200018290620003c4565b90600052602060002090601f016020900481019282620001a65760008555620001f1565b82601f10620001c157805160ff1916838001178555620001f1565b82800160010185558215620001f1579182015b82811115620001f1578251825591602001919060010190620001d4565b50620001ff92915062000203565b5090565b5b80821115620001ff576000815560010162000204565b634e487b7160e01b600052604160045260246000fd5b600082601f8301126200024257600080fd5b81516001600160401b03808211156200025f576200025f6200021a565b604051601f8301601f19908116603f011681019082821181831017156200028a576200028a6200021a565b81604052838152602092508683858801011115620002a757600080fd5b600091505b83821015620002cb5785820183015181830184015290820190620002ac565b83821115620002dd5760008385830101525b9695505050505050565b600080600080600060a086880312156200030057600080fd5b85516001600160401b03808211156200031857600080fd5b6200032689838a0162000230565b965060208801519150808211156200033d57600080fd5b6200034b89838a0162000230565b955060408801519150808211156200036257600080fd5b6200037089838a0162000230565b945060608801519150808211156200038757600080fd5b50620003968882890162000230565b608088015190935090506001600160a01b0381168114620003b657600080fd5b809150509295509295909350565b600181811c90821680620003d957607f821691505b60208210811415620003fb57634e487b7160e01b600052602260045260246000fd5b50919050565b61485380620004116000396000f3fe6080604052600436106103975760003560e01c806381f67f34116101dc578063b5e5acc511610102578063e064b199116100a0578063f28daf6d1161006f578063f28daf6d14610abc578063f2fde38b14610adc578063f9e9026414610afc578063fa76b11514610b1c57600080fd5b8063e064b19914610a03578063e0a8085314610a23578063e985e9c514610a43578063ef6187a414610a8c57600080fd5b8063c87b56dd116100dc578063c87b56dd14610984578063cc06c359146109a4578063ced23a1a146109c3578063dc33e681146109e357600080fd5b8063b5e5acc514610917578063b88d4fde14610937578063c23dc68f1461095757600080fd5b806395d89b411161017a578063a2309ff811610149578063a2309ff8146108a3578063a74bcde5146108bd578063b318fee1146108dd578063b3ebb381146108fd57600080fd5b806395d89b411461083857806399a2557a1461084d578063a035b1fe1461086d578063a22cb4651461088357600080fd5b80638552c6ca116101b65780638552c6ca146107a25780638da5cb5b146107e457806391b7f5ed1461080257806393d59a2c1461082257600080fd5b806381f67f341461074d5780638456cb59146107605780638462151c1461077557600080fd5b80633f4ba83a116102c15780635bbb21771161025f5780636c0360eb1161022e5780636c0360eb146106ee57806370a0823114610703578063715018a614610723578063722503801461073857600080fd5b80635bbb21771461066f5780635c975abb1461069c5780636352211e146106bb578063638d21f7146106db57600080fd5b8063518302271161029b57806351830227146105fb578063558a72971461061c57806355f804b31461063c5780635a9dedd51461065c57600080fd5b80633f4ba83a146105a657806342842e0e146105bb57806342966c68146105db57600080fd5b806323b872dd1161033957806330bc3d721161030857806330bc3d721461053b57806336794d151461055b578063375865651461057b5780633ccfd60b1461059157600080fd5b806323b872dd146104c5578063283d1e42146104e55780632de6ddc7146105055780632f3942361461051b57600080fd5b8063095ea7b311610375578063095ea7b31461042b57806313e7c9d81461044d57806314f223871461047d57806318160ddd1461049d57600080fd5b806301ffc9a71461039c57806306fdde03146103d1578063081812fc146103f3575b600080fd5b3480156103a857600080fd5b506103bc6103b7366004613df4565b610b4c565b60405190151581526020015b60405180910390f35b3480156103dd57600080fd5b506103e6610be9565b6040516103c89190613e69565b3480156103ff57600080fd5b5061041361040e366004613e7c565b610c7b565b6040516001600160a01b0390911681526020016103c8565b34801561043757600080fd5b5061044b610446366004613eac565b610cd8565b005b34801561045957600080fd5b506103bc610468366004613ed6565b60166020526000908152604090205460ff1681565b34801561048957600080fd5b5061044b610498366004613ed6565b610d9e565b3480156104a957600080fd5b506001546000540361047e19015b6040519081526020016103c8565b3480156104d157600080fd5b5061044b6104e0366004613ef1565b610e31565b3480156104f157600080fd5b5061044b610500366004613e7c565b61100c565b34801561051157600080fd5b506104b7600e5481565b34801561052757600080fd5b5061044b610536366004613fe4565b61105f565b34801561054757600080fd5b5061044b61055636600461403c565b6110d6565b34801561056757600080fd5b5061044b610576366004614068565b61125b565b34801561058757600080fd5b506104b7600f5481565b34801561059d57600080fd5b5061044b611578565b3480156105b257600080fd5b5061044b61166a565b3480156105c757600080fd5b5061044b6105d6366004613ef1565b6116c7565b3480156105e757600080fd5b5061044b6105f6366004613e7c565b6116e7565b34801561060757600080fd5b506011546103bc90600160b01b900460ff1681565b34801561062857600080fd5b5061044b6106373660046140c8565b611748565b34801561064857600080fd5b506103bc6106573660046140f2565b61177b565b61044b61066a366004614127565b6117a3565b34801561067b57600080fd5b5061068f61068a36600461417f565b611ae1565b6040516103c891906141f4565b3480156106a857600080fd5b50600854600160a01b900460ff166103bc565b3480156106c757600080fd5b506104136106d6366004613e7c565b611bad565b61044b6106e9366004613e7c565b611bb8565b3480156106fa57600080fd5b506103e6611d9b565b34801561070f57600080fd5b506104b761071e366004613ed6565b611e29565b34801561072f57600080fd5b5061044b611e91565b34801561074457600080fd5b506103e6611ea5565b61044b61075b36600461403c565b611eb2565b34801561076c57600080fd5b5061044b612089565b34801561078157600080fd5b50610795610790366004613ed6565b6120df565b6040516103c89190614271565b3480156107ae57600080fd5b506107d26107bd366004613e7c565b60146020526000908152604090205460ff1681565b60405160ff90911681526020016103c8565b3480156107f057600080fd5b506008546001600160a01b0316610413565b34801561080e57600080fd5b5061044b61081d366004613e7c565b6121eb565b34801561082e57600080fd5b506104b7600d5481565b34801561084457600080fd5b506103e661220a565b34801561085957600080fd5b506107956108683660046142a9565b612219565b34801561087957600080fd5b506104b7600c5481565b34801561088f57600080fd5b5061044b61089e3660046140c8565b6123c0565b3480156108af57600080fd5b5060005461047e19016104b7565b3480156108c957600080fd5b5061044b6108d8366004613e7c565b61246f565b3480156108e957600080fd5b5061044b6108f83660046142dc565b6124c2565b34801561090957600080fd5b506011546107d29060ff1681565b34801561092357600080fd5b5061044b610932366004614347565b61283a565b34801561094357600080fd5b5061044b610952366004614362565b612858565b34801561096357600080fd5b50610977610972366004613e7c565b6128a2565b6040516103c891906143ca565b34801561099057600080fd5b506103e661099f366004613e7c565b61292b565b3480156109b057600080fd5b506011546107d290610100900460ff1681565b3480156109cf57600080fd5b5061044b6109de366004613e7c565b612b3c565b3480156109ef57600080fd5b506104b76109fe366004613ed6565b612b5b565b348015610a0f57600080fd5b5061044b610a1e366004613eac565b612b86565b348015610a2f57600080fd5b5061044b610a3e36600461440f565b612c45565b348015610a4f57600080fd5b506103bc610a5e36600461442a565b6001600160a01b03918216600090815260076020908152604080832093909416825291909152205460ff1690565b348015610a9857600080fd5b506103bc610aa7366004613ed6565b60156020526000908152604090205460ff1681565b348015610ac857600080fd5b5061044b610ad73660046144e3565b612ccc565b348015610ae857600080fd5b5061044b610af7366004613ed6565b612e2f565b348015610b0857600080fd5b5061044b610b17366004614347565b612ebf565b348015610b2857600080fd5b506103bc610b37366004613e7c565b60136020526000908152604090205460ff1681565b60007f01ffc9a7000000000000000000000000000000000000000000000000000000006001600160e01b031983161480610baf57507f80ac58cd000000000000000000000000000000000000000000000000000000006001600160e01b03198316145b80610be357507f5b5e139f000000000000000000000000000000000000000000000000000000006001600160e01b03198316145b92915050565b606060028054610bf890614599565b80601f0160208091040260200160405190810160405280929190818152602001828054610c2490614599565b8015610c715780601f10610c4657610100808354040283529160200191610c71565b820191906000526020600020905b815481529060010190602001808311610c5457829003601f168201915b5050505050905090565b6000610c8682612ee3565b610cbc576040517fcf4700e400000000000000000000000000000000000000000000000000000000815260040160405180910390fd5b506000908152600660205260409020546001600160a01b031690565b6000610ce382611bad565b9050336001600160a01b03821614610d3557610cff8133610a5e565b610d35576040517fcfb3b94200000000000000000000000000000000000000000000000000000000815260040160405180910390fd5b600082815260066020526040808220805473ffffffffffffffffffffffffffffffffffffffff19166001600160a01b0387811691821790925591518593918516917f8c5be1e5ebec7d5bd14f71427d1e84f3dd0314c0f7b2291e5b200ac8c7c3b92591a4505050565b610da6612f19565b60026009541415610dec5760405162461bcd60e51b815260206004820152601f60248201526000805160206147fe83398151915260448201526064015b60405180910390fd5b601180546001600160a01b0390921662010000027fffffffffffffffffffff0000000000000000000000000000000000000000ffff9092169190911790556001600955565b6000610e3c82612f73565b9050836001600160a01b0316816001600160a01b031614610e89576040517fa114810000000000000000000000000000000000000000000000000000000000815260040160405180910390fd5b60008281526006602052604090208054610eb58187335b6001600160a01b039081169116811491141790565b610ee057610ec38633610a5e565b610ee057604051632ce44b5f60e11b815260040160405180910390fd5b6001600160a01b038516610f20576040517fea553b3400000000000000000000000000000000000000000000000000000000815260040160405180910390fd5b610f2d8686866001612ff6565b8015610f3857600082555b6001600160a01b038681166000908152600560205260408082208054600019019055918716808252919020805460010190554260a01b17600160e11b17600085815260046020526040902055600160e11b8316610fc35760018401600081815260046020526040902054610fc1576000548114610fc15760008181526004602052604090208490555b505b83856001600160a01b0316876001600160a01b03167fddf252ad1be2c89b69c2b068fc378daa952ba7f163c4a11628f55a4df523b3ef60405160405180910390a4505050505050565b611014612f19565b600260095414156110555760405162461bcd60e51b815260206004820152601f60248201526000805160206147fe8339815191526044820152606401610de3565b600e556001600955565b611067612f19565b600260095414156110a85760405162461bcd60e51b815260206004820152601f60248201526000805160206147fe8339815191526044820152606401610de3565b6002600955600082815260126020908152604090912082516110cc92840190613d45565b5050600160095550565b6110de612f19565b6002600954141561111f5760405162461bcd60e51b815260206004820152601f60248201526000805160206147fe8339815191526044820152606401610de3565b600260095560ff81166111745760405162461bcd60e51b815260206004820152601260248201527f4c4556454c5f43414e5f4e4f545f42455f3000000000000000000000000000006044820152606401610de3565b60115460ff6101009091048116908216106111d15760405162461bcd60e51b815260206004820152601660248201527f4d4158494d554d5f4c4556454c5f4558434545444544000000000000000000006044820152606401610de3565b60008281526014602052604090205460ff8083169116106112345760405162461bcd60e51b815260206004820152601e60248201527f43414e5f4e4f545f555047524144455f544f5f4c4f5745525f4c4556454c00006044820152606401610de3565b600091825260146020526040909120805460ff191660ff9092169190911790556001600955565b6112636130f2565b600260095414156112a45760405162461bcd60e51b815260206004820152601f60248201526000805160206147fe8339815191526044820152606401610de3565b6002600955601154839083906201000090046001600160a01b031660006113228361131c866040517f19457468657265756d205369676e6564204d6573736167653a0a3332000000006020820152603c8101829052600090605c01604051602081830303815290604052805190602001209050919050565b9061314c565b9050816001600160a01b0316816001600160a01b0316146113795760405162461bcd60e51b8152602060048201526011602482015270494e56414c49445f5349474e415455524560781b6044820152606401610de3565b6040516bffffffffffffffffffffffff193360601b166020820152603481018690527f0100000000000000000000000000000000000000000000000000000000000000605482015287908690600190839060550160405160208183030381529060405280519060200120146114225760405162461bcd60e51b815260206004820152600f60248201526e494e56414c49445f4d45535341474560881b6044820152606401610de3565b3361146f5760405162461bcd60e51b815260206004820152601a60248201527f30204953204e4f54204120434f525245435420414444524553530000000000006044820152606401610de3565b3360009081526015602052604090205460ff16156114cf5760405162461bcd60e51b815260206004820152601160248201527f5155414e544954595f45584345454445440000000000000000000000000000006044820152606401610de3565b6010546114da613170565b11156115135760405162461bcd60e51b815260206004820152600860248201526714d3d31117d3d55560c21b6044820152606401610de3565b600080548082526013602090815260408084208054600160ff1991821681179092556014845282862080548216831790553380875260159094529190942080549091168417905590916115669190613189565b50506001600955505050505050505050565b611580612f19565b47806115ce5760405162461bcd60e51b815260206004820181905260248201527f42616c616e63652073686f756c64206265206d6f7265207468616e207a65726f6044820152606401610de3565b604051600090339083908381818185875af1925050503d8060008114611610576040519150601f19603f3d011682016040523d82523d6000602084013e611615565b606091505b50509050806116665760405162461bcd60e51b815260206004820152601460248201527f4661696c656420746f2073656e642045746865720000000000000000000000006044820152606401610de3565b5050565b611672612f19565b600260095414156116b35760405162461bcd60e51b815260206004820152601f60248201526000805160206147fe8339815191526044820152606401610de3565b60026009556116c06131a3565b6001600955565b6116e283838360405180602001604052806000815250612858565b505050565b6116ef6130f2565b600260095414156117305760405162461bcd60e51b815260206004820152601f60248201526000805160206147fe8339815191526044820152606401610de3565b60026009556117408160016131f8565b506001600955565b611750612f19565b6001600160a01b03919091166000908152601660205260409020805460ff1916911515919091179055565b6000611785612f19565b815161179890600a906020850190613d45565b50600190505b919050565b6117ab6130f2565b600260095414156117ec5760405162461bcd60e51b815260206004820152601f60248201526000805160206147fe8339815191526044820152606401610de3565b6002600955601154839083906201000090046001600160a01b031660006118648361131c866040517f19457468657265756d205369676e6564204d6573736167653a0a3332000000006020820152603c8101829052600090605c01604051602081830303815290604052805190602001209050919050565b9050816001600160a01b0316816001600160a01b0316146118bb5760405162461bcd60e51b8152602060048201526011602482015270494e56414c49445f5349474e415455524560781b6044820152606401610de3565b6040516bffffffffffffffffffffffff193360601b16602082015260348101869052879086908290605401604051602081830303815290604052805190602001201461193b5760405162461bcd60e51b815260206004820152600f60248201526e494e56414c49445f4d45535341474560881b6044820152606401610de3565b336119885760405162461bcd60e51b815260206004820152601a60248201527f30204953204e4f54204120434f525245435420414444524553530000000000006044820152606401610de3565b60008a116119d85760405162461bcd60e51b815260206004820152601760248201527f30204953204e4f542056414c4944205155414e544949590000000000000000006044820152606401610de3565b89600c546119e691906145ea565b341015611a265760405162461bcd60e51b815260206004820152600e60248201526d1393d517d15393d551d7d195539160921b6044820152606401610de3565b600e54600f54611a369042614609565b10611a835760405162461bcd60e51b815260206004820152601460248201527f5649502053414c4520504552494f44204f5645520000000000000000000000006044820152606401610de3565b601054611a8e613170565b1115611ac75760405162461bcd60e51b815260206004820152600860248201526714d3d31117d3d55560c21b6044820152606401610de3565b611ad08a613362565b505060016009555050505050505050565b60608160008167ffffffffffffffff811115611aff57611aff613f2d565b604051908082528060200260200182016040528015611b5157816020015b604080516080810182526000808252602080830182905292820181905260608201528252600019909201910181611b1d5790505b50905060005b828114611ba457611b7f868683818110611b7357611b73614620565b905060200201356128a2565b828281518110611b9157611b91614620565b6020908102919091010152600101611b57565b50949350505050565b6000610be382612f73565b611bc06130f2565b60026009541415611c015760405162461bcd60e51b815260206004820152601f60248201526000805160206147fe8339815191526044820152606401610de3565b600260095533611c535760405162461bcd60e51b815260206004820152601a60248201527f30204953204e4f54204120434f525245435420414444524553530000000000006044820152606401610de3565b60008111611ca35760405162461bcd60e51b815260206004820152601760248201527f30204953204e4f542056414c4944205155414e544949590000000000000000006044820152606401610de3565b80600c54611cb191906145ea565b341015611cf15760405162461bcd60e51b815260206004820152600e60248201526d1393d517d15393d551d7d195539160921b6044820152606401610de3565b600e54600f54611d019042614609565b11611d4e5760405162461bcd60e51b815260206004820152600f60248201527f5649502053414c4520504552494f4400000000000000000000000000000000006044820152606401610de3565b601054611d59613170565b1115611d925760405162461bcd60e51b815260206004820152600860248201526714d3d31117d3d55560c21b6044820152606401610de3565b61174081613362565b600a8054611da890614599565b80601f0160208091040260200160405190810160405280929190818152602001828054611dd490614599565b8015611e215780601f10611df657610100808354040283529160200191611e21565b820191906000526020600020905b815481529060010190602001808311611e0457829003601f168201915b505050505081565b60006001600160a01b038216611e6b576040517f8f4eb60400000000000000000000000000000000000000000000000000000000815260040160405180910390fd5b506001600160a01b031660009081526005602052604090205467ffffffffffffffff1690565b611e99612f19565b611ea360006133be565b565b600b8054611da890614599565b611eba6130f2565b60026009541415611efb5760405162461bcd60e51b815260206004820152601f60248201526000805160206147fe8339815191526044820152606401610de3565b6002600955611f0982612ee3565b611f2657604051630a14c4b560e41b815260040160405180910390fd5b8060ff16600d54611f3791906145ea565b341015611f775760405162461bcd60e51b815260206004820152600e60248201526d1393d517d15393d551d7d195539160921b6044820152606401610de3565b60008160ff1611611fca5760405162461bcd60e51b815260206004820152601260248201527f4c4556454c5f43414e5f4e4f545f42455f3000000000000000000000000000006044820152606401610de3565b60115460008381526014602052604090205460ff610100909204821691611ff391849116614636565b60ff1611156120445760405162461bcd60e51b815260206004820152601660248201527f4d4158494d554d5f4c4556454c5f4558434545444544000000000000000000006044820152606401610de3565b6000828152601460205260408120805483929061206590849060ff16614636565b92506101000a81548160ff021916908360ff16021790555060016009819055505050565b612091612f19565b600260095414156120d25760405162461bcd60e51b815260206004820152601f60248201526000805160206147fe8339815191526044820152606401610de3565b60026009556116c061341d565b606060008060006120ef85611e29565b905060008167ffffffffffffffff81111561210c5761210c613f2d565b604051908082528060200260200182016040528015612135578160200160208202803683370190505b5060408051608081018252600080825260208201819052918101829052606081019190915290915061047f5b8386146121df5761217181613460565b9150816040015115612182576121d7565b81516001600160a01b03161561219757815194505b876001600160a01b0316856001600160a01b031614156121d757808387806001019850815181106121ca576121ca614620565b6020026020010181815250505b600101612161565b50909695505050505050565b6121f3612f19565b61220481662386f26fc100006145ea565b600c5550565b606060038054610bf890614599565b6060818310612254576040517f32c1995a00000000000000000000000000000000000000000000000000000000815260040160405180910390fd5b60008061226060005490565b905061047f8510156122725761047f94505b8084111561227e578093505b600061228987611e29565b9050848610156122a857858503818110156122a2578091505b506122ac565b5060005b60008167ffffffffffffffff8111156122c7576122c7613f2d565b6040519080825280602002602001820160405280156122f0578160200160208202803683370190505b509050816123035793506123b992505050565b600061230e886128a2565b90506000816040015161231f575080515b885b8881141580156123315750848714155b156123ad5761233f81613460565b9250826040015115612350576123a5565b82516001600160a01b03161561236557825191505b8a6001600160a01b0316826001600160a01b031614156123a5578084888060010199508151811061239857612398614620565b6020026020010181815250505b600101612321565b50505092835250909150505b9392505050565b6001600160a01b038216331415612403576040517fb06307db00000000000000000000000000000000000000000000000000000000815260040160405180910390fd5b3360008181526007602090815260408083206001600160a01b03871680855290835292819020805460ff191686151590811790915590519081529192917f17307eab39ab6107e8899845ad3d59bd9653f200f220920489ca2b5937696c31910160405180910390a35050565b612477612f19565b600260095414156124b85760405162461bcd60e51b815260206004820152601f60248201526000805160206147fe8339815191526044820152606401610de3565b600f556001600955565b6124ca6130f2565b6002600954141561250b5760405162461bcd60e51b815260206004820152601f60248201526000805160206147fe8339815191526044820152606401610de3565b6002600955601154859085906201000090046001600160a01b031660006125838361131c866040517f19457468657265756d205369676e6564204d6573736167653a0a3332000000006020820152603c8101829052600090605c01604051602081830303815290604052805190602001209050919050565b9050816001600160a01b0316816001600160a01b0316146125da5760405162461bcd60e51b8152602060048201526011602482015270494e56414c49445f5349474e415455524560781b6044820152606401610de3565b6040516bffffffffffffffffffffffff193360601b166020820152603481018890527fff0000000000000000000000000000000000000000000000000000000000000060f887901b166054820152899088908790839060550160405160208183030381529060405280519060200120146126885760405162461bcd60e51b815260206004820152600f60248201526e494e56414c49445f4d45535341474560881b6044820152606401610de3565b61269189612ee3565b6126ae57604051630a14c4b560e41b815260040160405180910390fd5b6126b789611bad565b6001600160a01b0316336001600160a01b0316146127175760405162461bcd60e51b815260206004820152600960248201527f4e4f54204f574e455200000000000000000000000000000000000000000000006044820152606401610de3565b60115460ff610100909104811690891611156127755760405162461bcd60e51b815260206004820152601660248201527f4d4158494d554d5f4c4556454c5f4558434545444544000000000000000000006044820152606401610de3565b61278060018961465b565b60008a81526014602052604090205460ff9081169116146128095760405162461bcd60e51b815260206004820152602660248201527f43414e5f4f4e4c595f555044524144455f4f4e455f4c4556454c5f41545f544860448201527f455f54494d4500000000000000000000000000000000000000000000000000006064820152608401610de3565b50505060009586525050601460205250506040909120805460ff191660ff9092169190911790555050600160095550565b612842612f19565b6011805460ff191660ff92909216919091179055565b612863848484610e31565b6001600160a01b0383163b1561289c5761287f848484846134df565b61289c576040516368d2bf6b60e11b815260040160405180910390fd5b50505050565b60408051608081018252600080825260208201819052918101829052606081019190915260408051608081018252600080825260208201819052918101829052606081019190915261047f8310806128fc57506000548310155b156129075792915050565b61291083613460565b90508060400151156129225792915050565b6123b9836135d6565b606061293682612ee3565b61295357604051630a14c4b560e41b815260040160405180910390fd5b601154600160b01b900460ff166129f657600b805461297190614599565b80601f016020809104026020016040519081016040528092919081815260200182805461299d90614599565b80156129ea5780601f106129bf576101008083540402835291602001916129ea565b820191906000526020600020905b8154815290600101906020018083116129cd57829003601f168201915b50505050509050919050565b60008281526012602052604081208054612a0f90614599565b80601f0160208091040260200160405190810160405280929190818152602001828054612a3b90614599565b8015612a885780601f10612a5d57610100808354040283529160200191612a88565b820191906000526020600020905b815481529060010190602001808311612a6b57829003601f168201915b50505050509050600081511115612ac15780604051602001612aaa919061467e565b604051602081830303815290604052915050919050565b6000612acb61364e565b9050805160001415612aec5760405180602001604052806000815250612b34565b6000848152601460205260409020548190612b099060ff1661365d565b612b128661365d565b604051602001612b249392919061469a565b6040516020818303038152906040525b949350505050565b612b44612f19565b612b5581662386f26fc100006145ea565b600d5550565b6001600160a01b0381166000908152600560205260408082205467ffffffffffffffff911c16610be3565b612b8e612f19565b60026009541415612bcf5760405162461bcd60e51b815260206004820152601f60248201526000805160206147fe8339815191526044820152606401610de3565b6002600955600054612be183836136ac565b60005b612bef600184614609565b811015612c3a57600160146000612c06848661475b565b81526020810191909152604001600020805460ff191660ff9290921691909117905580612c3281614773565b915050612be4565b505060016009555050565b612c4d612f19565b60026009541415612c8e5760405162461bcd60e51b815260206004820152601f60248201526000805160206147fe8339815191526044820152606401610de3565b60118054911515600160b01b027fffffffffffffffffff00ffffffffffffffffffffffffffffffffffffffffffff9092169190911790556001600955565b612cd4612f19565b60026009541415612d155760405162461bcd60e51b815260206004820152601f60248201526000805160206147fe8339815191526044820152606401610de3565b60026009558051825114612d915760405162461bcd60e51b815260206004820152602860248201527f5448452032204152524159532053484f554c442048415645205448452053414d60448201527f45204c454e4754480000000000000000000000000000000000000000000000006064820152608401610de3565b601054612d9c613170565b1115612dd55760405162461bcd60e51b815260206004820152600860248201526714d3d31117d3d55560c21b6044820152606401610de3565b60005b82518110156110cc57612e1d838281518110612df657612df6614620565b6020026020010151838381518110612e1057612e10614620565b60200260200101516136ac565b80612e2781614773565b915050612dd8565b612e37612f19565b6001600160a01b038116612eb35760405162461bcd60e51b815260206004820152602660248201527f4f776e61626c653a206e6577206f776e657220697320746865207a65726f206160448201527f64647265737300000000000000000000000000000000000000000000000000006064820152608401610de3565b612ebc816133be565b50565b612ec7612f19565b6011805460ff9092166101000261ff0019909216919091179055565b60008161047f11158015612ef8575060005482105b8015610be3575050600090815260046020526040902054600160e01b161590565b6008546001600160a01b03163314611ea35760405162461bcd60e51b815260206004820181905260248201527f4f776e61626c653a2063616c6c6572206973206e6f7420746865206f776e65726044820152606401610de3565b6000818061047f11612fc457600054811015612fc457600081815260046020526040902054600160e01b8116612fc2575b806123b9575060001901600081815260046020526040902054612fa4565b505b6040517fdf2d9b4200000000000000000000000000000000000000000000000000000000815260040160405180910390fd5b612fff82612ee3565b1561289c57604080516080810182526000808252602082018190529181018290526060810191909152613031836135d6565b90508060400151156130855760405162461bcd60e51b815260206004820152601560248201527f5448495320544f4b454e20574153204255524e454400000000000000000000006044820152606401610de3565b60115460008481526014602052604090205460ff9081169116146130eb5760405162461bcd60e51b815260206004820152601d60248201527f4e45454420544f204c4556454c555020544f204c49455554454e414e540000006044820152606401610de3565b5050505050565b600854600160a01b900460ff1615611ea35760405162461bcd60e51b815260206004820152601060248201527f5061757361626c653a20706175736564000000000000000000000000000000006044820152606401610de3565b600080600061315b85856137e5565b9150915061316881613855565b509392505050565b600061317b60015490565b60005461047e190103905090565b611666828260405180602001604052806000815250613a10565b6131ab613a76565b6008805460ff60a01b191690557f5db9ee0a495bf2e6ff9c91a7834c1ba4fdd244a5e8aa4e537bd38aeae4b073aa335b6040516001600160a01b03909116815260200160405180910390a1565b600061320383612f73565b90508060008061322186600090815260066020526040902080549091565b91509150841561326157613236818433610ea0565b613261576132448333610a5e565b61326157604051632ce44b5f60e11b815260040160405180910390fd5b61326f836000886001612ff6565b801561327a57600082555b6001600160a01b038316600081815260056020526040902080546fffffffffffffffffffffffffffffffff0190554260a01b177c030000000000000000000000000000000000000000000000000000000017600087815260046020526040902055600160e11b841661331a57600186016000818152600460205260409020546133185760005481146133185760008181526004602052604090208590555b505b60405186906000906001600160a01b038616907fddf252ad1be2c89b69c2b068fc378daa952ba7f163c4a11628f55a4df523b3ef908390a45050600180548101905550505050565b60005461336f3383613189565b60005b828110156116e25760016014600061338a848661475b565b81526020810191909152604001600020805460ff191660ff92909216919091179055806133b681614773565b915050613372565b600880546001600160a01b0383811673ffffffffffffffffffffffffffffffffffffffff19831681179093556040519116919082907f8be0079c531659141344cd1fd0a4f28419497f9722a3daafe3b4186f6b6457e090600090a35050565b6134256130f2565b6008805460ff60a01b1916600160a01b1790557f62e78cea01bee320cd4e420270b5ea74000d11b0c9f74754ebdbfc544b05a2586131db3390565b604080516080810182526000808252602082018190529181018290526060810191909152600082815260046020526040902054610be390604080516080810182526001600160a01b038316815260a083901c67ffffffffffffffff166020820152600160e01b831615159181019190915260e89190911c606082015290565b604051630a85bd0160e11b81526000906001600160a01b0385169063150b7a029061351490339089908890889060040161478e565b602060405180830381600087803b15801561352e57600080fd5b505af192505050801561355e575060408051601f3d908101601f1916820190925261355b918101906147ca565b60015b6135b9573d80801561358c576040519150601f19603f3d011682016040523d82523d6000602084013e613591565b606091505b5080516135b1576040516368d2bf6b60e11b815260040160405180910390fd5b805181602001fd5b6001600160e01b031916630a85bd0160e11b149050949350505050565b604080516080810182526000808252602082018190529181018290526060810191909152610be361360683612f73565b604080516080810182526001600160a01b038316815260a083901c67ffffffffffffffff166020820152600160e01b831615159181019190915260e89190911c606082015290565b6060600a8054610bf890614599565b604080516080810191829052607f0190826030600a8206018353600a90045b801561369a57600183039250600a81066030018353600a900461367c565b50819003601f19909101908152919050565b6001600160a01b0382166137025760405162461bcd60e51b815260206004820152601860248201527f30204953204e4f5420412056414c4944204144445245535300000000000000006044820152606401610de3565b600081116137525760405162461bcd60e51b815260206004820152601760248201527f30204953204e4f542056414c4944205155414e544949590000000000000000006044820152606401610de3565b60005461375f8383613189565b60005b8281101561289c5760016013600061377a848661475b565b815260200190815260200160002060006101000a81548160ff02191690831515021790555060016014600083856137b1919061475b565b81526020810191909152604001600020805460ff191660ff92909216919091179055806137dd81614773565b915050613762565b60008082516041141561381c5760208301516040840151606085015160001a61381087828585613acf565b9450945050505061384e565b825160401415613846576020830151604084015161383b868383613bbc565b93509350505061384e565b506000905060025b9250929050565b6000816004811115613869576138696147e7565b14156138725750565b6001816004811115613886576138866147e7565b14156138d45760405162461bcd60e51b815260206004820152601860248201527f45434453413a20696e76616c6964207369676e617475726500000000000000006044820152606401610de3565b60028160048111156138e8576138e86147e7565b14156139365760405162461bcd60e51b815260206004820152601f60248201527f45434453413a20696e76616c6964207369676e6174757265206c656e677468006044820152606401610de3565b600381600481111561394a5761394a6147e7565b14156139a35760405162461bcd60e51b815260206004820152602260248201527f45434453413a20696e76616c6964207369676e6174757265202773272076616c604482015261756560f01b6064820152608401610de3565b60048160048111156139b7576139b76147e7565b1415612ebc5760405162461bcd60e51b815260206004820152602260248201527f45434453413a20696e76616c6964207369676e6174757265202776272076616c604482015261756560f01b6064820152608401610de3565b613a1a8383613c0e565b6001600160a01b0383163b156116e2576000548281035b613a4460008683806001019450866134df565b613a61576040516368d2bf6b60e11b815260040160405180910390fd5b818110613a315781600054146130eb57600080fd5b600854600160a01b900460ff16611ea35760405162461bcd60e51b815260206004820152601460248201527f5061757361626c653a206e6f74207061757365640000000000000000000000006044820152606401610de3565b6000807f7fffffffffffffffffffffffffffffff5d576e7357a4501ddfe92f46681b20a0831115613b065750600090506003613bb3565b8460ff16601b14158015613b1e57508460ff16601c14155b15613b2f5750600090506004613bb3565b6040805160008082526020820180845289905260ff881692820192909252606081018690526080810185905260019060a0016020604051602081039080840390855afa158015613b83573d6000803e3d6000fd5b5050604051601f1901519150506001600160a01b038116613bac57600060019250925050613bb3565b9150600090505b94509492505050565b6000807f7fffffffffffffffffffffffffffffffffffffffffffffffffffffffffffffff831681613bf260ff86901c601b61475b565b9050613c0087828885613acf565b935093505050935093915050565b60005481613c48576040517fb562e8dd00000000000000000000000000000000000000000000000000000000815260040160405180910390fd5b613c556000848385612ff6565b6001600160a01b03831660008181526005602090815260408083208054680100000000000000018802019055848352600490915281206001851460e11b4260a01b178317905582840190839083907fddf252ad1be2c89b69c2b068fc378daa952ba7f163c4a11628f55a4df523b3ef8180a4600183015b818114613d0457808360007fddf252ad1be2c89b69c2b068fc378daa952ba7f163c4a11628f55a4df523b3ef600080a4600101613ccc565b5081613d3c576040517f2e07630000000000000000000000000000000000000000000000000000000000815260040160405180910390fd5b60005550505050565b828054613d5190614599565b90600052602060002090601f016020900481019282613d735760008555613db9565b82601f10613d8c57805160ff1916838001178555613db9565b82800160010185558215613db9579182015b82811115613db9578251825591602001919060010190613d9e565b50613dc5929150613dc9565b5090565b5b80821115613dc55760008155600101613dca565b6001600160e01b031981168114612ebc57600080fd5b600060208284031215613e0657600080fd5b81356123b981613dde565b60005b83811015613e2c578181015183820152602001613e14565b8381111561289c5750506000910152565b60008151808452613e55816020860160208601613e11565b601f01601f19169290920160200192915050565b6020815260006123b96020830184613e3d565b600060208284031215613e8e57600080fd5b5035919050565b80356001600160a01b038116811461179e57600080fd5b60008060408385031215613ebf57600080fd5b613ec883613e95565b946020939093013593505050565b600060208284031215613ee857600080fd5b6123b982613e95565b600080600060608486031215613f0657600080fd5b613f0f84613e95565b9250613f1d60208501613e95565b9150604084013590509250925092565b634e487b7160e01b600052604160045260246000fd5b604051601f8201601f1916810167ffffffffffffffff81118282101715613f6c57613f6c613f2d565b604052919050565b600082601f830112613f8557600080fd5b813567ffffffffffffffff811115613f9f57613f9f613f2d565b613fb2601f8201601f1916602001613f43565b818152846020838601011115613fc757600080fd5b816020850160208301376000918101602001919091529392505050565b60008060408385031215613ff757600080fd5b82359150602083013567ffffffffffffffff81111561401557600080fd5b61402185828601613f74565b9150509250929050565b803560ff8116811461179e57600080fd5b6000806040838503121561404f57600080fd5b8235915061405f6020840161402b565b90509250929050565b60008060006060848603121561407d57600080fd5b83359250602084013567ffffffffffffffff81111561409b57600080fd5b6140a786828701613f74565b925050604084013590509250925092565b8035801515811461179e57600080fd5b600080604083850312156140db57600080fd5b6140e483613e95565b915061405f602084016140b8565b60006020828403121561410457600080fd5b813567ffffffffffffffff81111561411b57600080fd5b612b3484828501613f74565b6000806000806080858703121561413d57600080fd5b8435935060208501359250604085013567ffffffffffffffff81111561416257600080fd5b61416e87828801613f74565b949793965093946060013593505050565b6000806020838503121561419257600080fd5b823567ffffffffffffffff808211156141aa57600080fd5b818501915085601f8301126141be57600080fd5b8135818111156141cd57600080fd5b8660208260051b85010111156141e257600080fd5b60209290920196919550909350505050565b6020808252825182820181905260009190848201906040850190845b818110156121df5761425e8385516001600160a01b03815116825267ffffffffffffffff602082015116602083015260408101511515604083015262ffffff60608201511660608301525050565b9284019260809290920191600101614210565b6020808252825182820181905260009190848201906040850190845b818110156121df5783518352928401929184019160010161428d565b6000806000606084860312156142be57600080fd5b6142c784613e95565b95602085013595506040909401359392505050565b600080600080600060a086880312156142f457600080fd5b85359450602086013567ffffffffffffffff81111561431257600080fd5b61431e88828901613f74565b945050604086013592506060860135915061433b6080870161402b565b90509295509295909350565b60006020828403121561435957600080fd5b6123b98261402b565b6000806000806080858703121561437857600080fd5b61438185613e95565b935061438f60208601613e95565b925060408501359150606085013567ffffffffffffffff8111156143b257600080fd5b6143be87828801613f74565b91505092959194509250565b81516001600160a01b0316815260208083015167ffffffffffffffff169082015260408083015115159082015260608083015162ffffff169082015260808101610be3565b60006020828403121561442157600080fd5b6123b9826140b8565b6000806040838503121561443d57600080fd5b61444683613e95565b915061405f60208401613e95565b600067ffffffffffffffff82111561446e5761446e613f2d565b5060051b60200190565b600082601f83011261448957600080fd5b8135602061449e61449983614454565b613f43565b82815260059290921b840181019181810190868411156144bd57600080fd5b8286015b848110156144d857803583529183019183016144c1565b509695505050505050565b600080604083850312156144f657600080fd5b823567ffffffffffffffff8082111561450e57600080fd5b818501915085601f83011261452257600080fd5b8135602061453261449983614454565b82815260059290921b8401810191818101908984111561455157600080fd5b948201945b838610156145765761456786613e95565b82529482019490820190614556565b9650508601359250508082111561458c57600080fd5b5061402185828601614478565b600181811c908216806145ad57607f821691505b602082108114156145ce57634e487b7160e01b600052602260045260246000fd5b50919050565b634e487b7160e01b600052601160045260246000fd5b6000816000190483118215151615614604576146046145d4565b500290565b60008282101561461b5761461b6145d4565b500390565b634e487b7160e01b600052603260045260246000fd5b600060ff821660ff84168060ff03821115614653576146536145d4565b019392505050565b600060ff821660ff841680821015614675576146756145d4565b90039392505050565b60008251614690818460208701613e11565b9190910192915050565b600084516146ac818460208901613e11565b7f6c6576656c00000000000000000000000000000000000000000000000000000090830190815284516146e6816005840160208901613e11565b7f2f00000000000000000000000000000000000000000000000000000000000000600592909101918201528351614724816006840160208801613e11565b7f2e6a736f6e00000000000000000000000000000000000000000000000000000060069290910191820152600b0195945050505050565b6000821982111561476e5761476e6145d4565b500190565b6000600019821415614787576147876145d4565b5060010190565b60006001600160a01b038087168352808616602084015250836040830152608060608301526147c06080830184613e3d565b9695505050505050565b6000602082840312156147dc57600080fd5b81516123b981613dde565b634e487b7160e01b600052602160045260246000fdfe5265656e7472616e637947756172643a207265656e7472616e742063616c6c00a264697066735822122001353a9ff24453abec327b83f9398a8ee1bcbfc789d0eaa4a2934e64bddb575164736f6c63430008090033",
  "linkReferences": {},
  "deployedLinkReferences": {}
}